{
	"data": {
		"bytecode": {
			"linkReferences": {},
			"object": "610160604052348015610010575f5ffd5b5060405161305e38038061305e83398101604081905261002f9161090f565b604051806040016040528060078152602001664e4f564152494360c81b81525080604051806040016040528060018152602001603160f81b81525083604051806040016040528060078152602001664e4f564152494360c81b8152506040518060400160405280600381526020016209cacb60eb1b81525081600390816100b691906109cc565b5060046100c382826109cc565b50506005805460ff19169055506001600160a01b0381166100fe57604051631e4fbdf760e01b81525f60048201526024015b60405180910390fd5b610107816101df565b50610113826006610238565b61012052610122816007610238565b61014052815160208084019190912060e052815190820120610100524660a0526101ae60e05161010051604080517f8b73c3c69bb8fe3d512ecc4cf759cc79239f7b179b0ffacaa9a75d522b39400f60208201529081019290925260608201524660808201523060a08201525f9060c00160405160208183030381529060405280519060200120905090565b60805250503060c052506101d9336101c86012600a610b75565b6101d490610a34610b83565b61026a565b50610c56565b600580546001600160a01b03838116610100818102610100600160a81b031985161790945560405193909204169182907f8be0079c531659141344cd1fd0a4f28419497f9722a3daafe3b4186f6b6457e0905f90a35050565b5f6020835110156102535761024c836102a2565b9050610264565b8161025e84826109cc565b5060ff90505b92915050565b6001600160a01b0382166102935760405163ec442f0560e01b81525f60048201526024016100f5565b61029e5f83836102df565b5050565b5f5f829050601f815111156102cc578260405163305a27a960e01b81526004016100f59190610b9a565b80516102d782610bcf565b179392505050565b6102ea8383836102ef565b505050565b6102fa838383610355565b6001600160a01b03831661034a575f61031260025490565b90506001600160d01b038082111561034757604051630e58ae9360e11b815260048101839052602481018290526044016100f5565b50505b6102ea838383610368565b61035d6103f0565b6102ea838383610416565b6001600160a01b03831661039657610393600b610c5761053c60201b1761038e8461054e565b610585565b50505b6001600160a01b0382166103bf576103bc600b610c626105ba60201b1761038e8461054e565b50505b6001600160a01b038381165f908152600960205260408082205485841683529120546102ea929182169116836105c5565b60055460ff16156104145760405163d93c066560e01b815260040160405180910390fd5b565b6001600160a01b038316610440578060025f8282546104359190610bf2565b909155506104b09050565b6001600160a01b0383165f90815260208190526040902054818110156104925760405163391434e360e21b81526001600160a01b038516600482015260248101829052604481018390526064016100f5565b6001600160a01b0384165f9081526020819052604090209082900390555b6001600160a01b0382166104cc576002805482900390556104ea565b6001600160a01b0382165f9081526020819052604090208054820190555b816001600160a01b0316836001600160a01b03167fddf252ad1be2c89b69c2b068fc378daa952ba7f163c4a11628f55a4df523b3ef8360405161052f91815260200190565b60405180910390a3505050565b5f6105478284610c05565b9392505050565b5f6001600160d01b03821115610581576040516306dfcc6560e41b815260d06004820152602481018390526044016100f5565b5090565b5f806105ad610592610715565b6105a561059e88610723565b868860201c565b87919061076a565b915091505b935093915050565b5f6105478284610c24565b816001600160a01b0316836001600160a01b0316141580156105e657505f81115b156102ea576001600160a01b0383161561067e576001600160a01b0383165f908152600a602090815260408220829161062c91906105ba901b610c621761038e8661054e565b6001600160d01b031691506001600160d01b03169150846001600160a01b03165f51602061303e5f395f51905f528383604051610673929190918252602082015260400190565b60405180910390a250505b6001600160a01b038216156102ea576001600160a01b0382165f908152600a60209081526040822082916106bf919061053c901b610c571761038e8661054e565b6001600160d01b031691506001600160d01b03169150836001600160a01b03165f51602061303e5f395f51905f528383604051610706929190918252602082015260400190565b60405180910390a25050505050565b5f61071e610777565b905090565b80545f908015610762576107498361073c600184610c43565b5f91825260209091200190565b54660100000000000090046001600160d01b0316610547565b5f9392505050565b5f806105ad858585610781565b5f61071e436108dd565b82545f9081908015610880575f61079d8761073c600185610c43565b805490915065ffffffffffff80821691660100000000000090046001600160d01b03169088168211156107e357604051632520601d60e01b815260040160405180910390fd5b8765ffffffffffff168265ffffffffffff160361081f57825465ffffffffffff1666010000000000006001600160d01b03891602178355610872565b6040805180820190915265ffffffffffff808a1682526001600160d01b03808a1660208085019182528d54600181018f555f8f815291909120945191519092166601000000000000029216919091179101555b94508593506105b292505050565b50506040805180820190915265ffffffffffff80851682526001600160d01b0380851660208085019182528854600181018a555f8a81529182209551925190931666010000000000000291909316179201919091559050816105b2565b5f65ffffffffffff821115610581576040516306dfcc6560e41b815260306004820152602481018390526044016100f5565b5f6020828403121561091f575f5ffd5b81516001600160a01b0381168114610547575f5ffd5b634e487b7160e01b5f52604160045260245ffd5b600181811c9082168061095d57607f821691505b60208210810361097b57634e487b7160e01b5f52602260045260245ffd5b50919050565b601f8211156102ea57805f5260205f20601f840160051c810160208510156109a65750805b601f840160051c820191505b818110156109c5575f81556001016109b2565b5050505050565b81516001600160401b038111156109e5576109e5610935565b6109f9816109f38454610949565b84610981565b6020601f821160018114610a2b575f8315610a145750848201515b5f19600385901b1c1916600184901b1784556109c5565b5f84815260208120601f198516915b82811015610a5a5787850151825560209485019460019092019101610a3a565b5084821015610a7757868401515f19600387901b60f8161c191681555b50505050600190811b01905550565b634e487b7160e01b5f52601160045260245ffd5b6001815b60018411156105b257808504811115610ab957610ab9610a86565b6001841615610ac757908102905b60019390931c928002610a9e565b5f82610ae357506001610264565b81610aef57505f610264565b8160018114610b055760028114610b0f57610b2b565b6001915050610264565b60ff841115610b2057610b20610a86565b50506001821b610264565b5060208310610133831016604e8410600b8410161715610b4e575081810a610264565b610b5a5f198484610a9a565b805f1904821115610b6d57610b6d610a86565b029392505050565b5f61054760ff841683610ad5565b808202811582820484141761026457610264610a86565b602081525f82518060208401528060208501604085015e5f604082850101526040601f19601f83011684010191505092915050565b8051602080830151919081101561097b575f1960209190910360031b1b16919050565b8082018082111561026457610264610a86565b6001600160d01b03818116838216019081111561026457610264610a86565b6001600160d01b03828116828216039081111561026457610264610a86565b8181038181111561026457610264610a86565b60805160a05160c05160e051610100516101205161014051612397610ca75f395f6111d601525f6111a901525f610e3001525f610e0801525f610d6301525f610d8d01525f610db701526123975ff3fe608060405234801561000f575f5ffd5b50600436106101f2575f3560e01c806370a082311161011457806395d89b41116100a9578063d505accf11610079578063d505accf14610449578063d9d98ce41461045c578063dd62ed3e1461046f578063f1127ed8146104a7578063f2fde38b146104e6575f5ffd5b806395d89b41146104085780639ab24eb014610410578063a9059cbb14610423578063c3cda52014610436575f5ffd5b806384b0196e116100e457806384b0196e146103a55780638da5cb5b146103c05780638e539e8c146103d657806391ddadf4146103e9575f5ffd5b806370a082311461035a578063715018a6146103825780637ecebe001461038a5780638456cb591461039d575f5ffd5b806340c10f191161018a5780635c975abb1161015a5780635c975abb146103015780635cffe9de1461030c578063613255ab1461031f5780636fcfff4514610332575f5ffd5b806340c10f19146102905780634bf5d7e9146102a3578063587cde1e146102ab5780635c19a95c146102ee575f5ffd5b8063313ce567116101c5578063313ce5671461025c5780633644e5151461026b5780633a46b1a8146102735780633f4ba83a14610286575f5ffd5b806306fdde03146101f6578063095ea7b31461021457806318160ddd1461023757806323b872dd14610249575b5f5ffd5b6101fe6104f9565b60405161020b9190611eb8565b60405180910390f35b610227610222366004611ede565b610589565b604051901515815260200161020b565b6002545b60405190815260200161020b565b610227610257366004611f08565b6105a2565b6040516012815260200161020b565b61023b6105c5565b61023b610281366004611ede565b6105d3565b61028e610657565b005b61028e61029e366004611ede565b610669565b6101fe61067f565b6102d66102b9366004611f46565b6001600160a01b039081165f908152600960205260409020541690565b6040516001600160a01b03909116815260200161020b565b61028e6102fc366004611f46565b6106f7565b60055460ff16610227565b61022761031a366004611f61565b610702565b61023b61032d366004611f46565b610874565b610345610340366004611f46565b610899565b60405163ffffffff909116815260200161020b565b61023b610368366004611f46565b6001600160a01b03165f9081526020819052604090205490565b61028e6108a3565b61023b610398366004611f46565b6108b4565b61028e6108be565b6103ad6108ce565b60405161020b9796959493929190611ffa565b60055461010090046001600160a01b03166102d6565b61023b6103e4366004612090565b610910565b6103f1610979565b60405165ffffffffffff909116815260200161020b565b6101fe610982565b61023b61041e366004611f46565b610991565b610227610431366004611ede565b6109c0565b61028e6104443660046120bc565b6109cd565b61028e610457366004612112565b610a89565b61023b61046a366004611ede565b610bbf565b61023b61047d36600461217c565b6001600160a01b039182165f90815260016020908152604080832093909416825291909152205490565b6104ba6104b53660046121b3565b610bfd565b60408051825165ffffffffffff1681526020928301516001600160d01b0316928101929092520161020b565b61028e6104f4366004611f46565b610c1a565b606060038054610508906121e7565b80601f0160208091040260200160405190810160405280929190818152602001828054610534906121e7565b801561057f5780601f106105565761010080835404028352916020019161057f565b820191905f5260205f20905b81548152906001019060200180831161056257829003601f168201915b5050505050905090565b5f33610596818585610c6d565b60019150505b92915050565b5f336105af858285610c7f565b6105ba858585610cfa565b506001949350505050565b5f6105ce610d57565b905090565b5f5f6105dd610979565b90508065ffffffffffff16831061061d57604051637669fc0f60e11b81526004810184905265ffffffffffff821660248201526044015b60405180910390fd5b61064661062984610e80565b6001600160a01b0386165f908152600a6020526040902090610eb6565b6001600160d01b0316949350505050565b61065f610f66565b610667610f99565b565b610671610f66565b61067b8282610feb565b5050565b606061068961101f565b65ffffffffffff16610699610979565b65ffffffffffff16146106bf576040516301bfc1c560e61b815260040160405180910390fd5b5060408051808201909152601d81527f6d6f64653d626c6f636b6e756d6265722666726f6d3d64656661756c74000000602082015290565b3361067b8183611029565b5f5f61070d86610874565b9050808511156107335760405163fd9a760960e01b815260048101829052602401610614565b5f61073e8787610bbf565b905061074a8887610feb565b6040516323e30c8b60e01b81527f439148f0bbc682ca079e46d6e2c2f0c1e3b820f1a291b069d8882abf8cf18dd9906001600160a01b038a16906323e30c8b906107a29033908c908c9088908d908d9060040161221f565b6020604051808303815f875af11580156107be573d5f5f3e3d5ffd5b505050506040513d601f19601f820116820180604052508101906107e29190612277565b1461080a5760405162678c5b60e81b81526001600160a01b0389166004820152602401610614565b5f61081f893061081a858b6122a2565b610c7f565b81158061083357506001600160a01b038116155b156108505761084b89610846848a6122a2565b61109a565b610865565b61085a898861109a565b610865898284610cfa565b50600198975050505050505050565b5f6001600160a01b038216301461088b575f61059c565b60025461059c905f196122b5565b5f61059c826110ce565b6108ab610f66565b6106675f6110ef565b5f61059c82611148565b6108c6610f66565b610667611165565b5f6060805f5f5f60606108df6111a2565b6108e76111cf565b604080515f80825260208201909252600f60f81b9b939a50919850469750309650945092509050565b5f5f61091a610979565b90508065ffffffffffff16831061095557604051637669fc0f60e11b81526004810184905265ffffffffffff82166024820152604401610614565b61096961096184610e80565b600b90610eb6565b6001600160d01b03169392505050565b5f6105ce61101f565b606060048054610508906121e7565b6001600160a01b0381165f908152600a602052604081206109b1906111fc565b6001600160d01b031692915050565b5f33610596818585610cfa565b834211156109f157604051632341d78760e11b815260048101859052602401610614565b604080517fe48329057bfd03d55e49b547132e39cffd9c1820ad7b9d4c5307691425d15adf60208201526001600160a01b0388169181019190915260608101869052608081018590525f90610a6a90610a629060a0016040516020818303038152906040528051906020012061122b565b858585611257565b9050610a768187611283565b610a808188611029565b50505050505050565b83421115610aad5760405163313c898160e11b815260048101859052602401610614565b5f7f6e71edae12b1b97f4d1f60370fef10105fa2faae0126114a169c64845d6126c9888888610af88c6001600160a01b03165f90815260086020526040902080546001810190915590565b6040805160208101969096526001600160a01b0394851690860152929091166060840152608083015260a082015260c0810186905260e0016040516020818303038152906040528051906020012090505f610b528261122b565b90505f610b6182878787611257565b9050896001600160a01b0316816001600160a01b031614610ba8576040516325c0072360e11b81526001600160a01b0380831660048301528b166024820152604401610614565b610bb38a8a8a610c6d565b50505050505050505050565b5f6001600160a01b0383163014610bf457604051635ad3edc960e11b81526001600160a01b0384166004820152602401610614565b5f5b9392505050565b604080518082019091525f8082526020820152610bf683836112d5565b610c22610f66565b6001600160a01b038116610c4b57604051631e4fbdf760e01b81525f6004820152602401610614565b610c54816110ef565b50565b5f610bf682846122c8565b5f610bf682846122e7565b610c7a8383836001611309565b505050565b6001600160a01b038381165f908152600160209081526040808320938616835292905220545f198114610cf45781811015610ce657604051637dc7a0d960e11b81526001600160a01b03841660048201526024810182905260448101839052606401610614565b610cf484848484035f611309565b50505050565b6001600160a01b038316610d2357604051634b637e8f60e11b81525f6004820152602401610614565b6001600160a01b038216610d4c5760405163ec442f0560e01b81525f6004820152602401610614565b610c7a8383836113db565b5f306001600160a01b037f000000000000000000000000000000000000000000000000000000000000000016148015610daf57507f000000000000000000000000000000000000000000000000000000000000000046145b15610dd957507f000000000000000000000000000000000000000000000000000000000000000090565b6105ce604080517f8b73c3c69bb8fe3d512ecc4cf759cc79239f7b179b0ffacaa9a75d522b39400f60208201527f0000000000000000000000000000000000000000000000000000000000000000918101919091527f000000000000000000000000000000000000000000000000000000000000000060608201524660808201523060a08201525f9060c00160405160208183030381529060405280519060200120905090565b5f65ffffffffffff821115610eb2576040516306dfcc6560e41b81526030600482015260248101839052604401610614565b5090565b81545f9081816005811115610f12575f610ecf846113e6565b610ed990856122b5565b5f8881526020902090915081015465ffffffffffff9081169087161015610f0257809150610f10565b610f0d8160016122a2565b92505b505b5f610f1f8787858561153e565b90508015610f5957610f4387610f366001846122b5565b5f91825260209091200190565b54600160301b90046001600160d01b0316610f5b565b5f5b979650505050505050565b6005546001600160a01b036101009091041633146106675760405163118cdaa760e01b8152336004820152602401610614565b610fa161159d565b6005805460ff191690557f5db9ee0a495bf2e6ff9c91a7834c1ba4fdd244a5e8aa4e537bd38aeae4b073aa335b6040516001600160a01b03909116815260200160405180910390a1565b6001600160a01b0382166110145760405163ec442f0560e01b81525f6004820152602401610614565b61067b5f83836113db565b5f6105ce43610e80565b6001600160a01b038281165f8181526009602052604080822080548686166001600160a01b0319821681179092559151919094169392849290917f3134e8a2e6d97e929a7e54011ea5485d7d196dd5f0ba4d4ef95803e8e3fc257f9190a4610c7a8183611095866115c0565b6115dd565b6001600160a01b0382166110c357604051634b637e8f60e11b81525f6004820152602401610614565b61067b825f836113db565b6001600160a01b0381165f908152600a602052604081205461059c90611746565b600580546001600160a01b03838116610100818102610100600160a81b031985161790945560405193909204169182907f8be0079c531659141344cd1fd0a4f28419497f9722a3daafe3b4186f6b6457e0905f90a35050565b6001600160a01b0381165f9081526008602052604081205461059c565b61116d611776565b6005805460ff191660011790557f62e78cea01bee320cd4e420270b5ea74000d11b0c9f74754ebdbfc544b05a258610fce3390565b60606105ce7f0000000000000000000000000000000000000000000000000000000000000000600661179a565b60606105ce7f0000000000000000000000000000000000000000000000000000000000000000600761179a565b80545f908015610bf45761121583610f366001846122b5565b54600160301b90046001600160d01b0316610bf6565b5f61059c611237610d57565b8360405161190160f01b8152600281019290925260228201526042902090565b5f5f5f5f61126788888888611843565b925092509250611277828261190b565b50909695505050505050565b6001600160a01b0382165f908152600860205260409020805460018101909155818114610c7a576040516301d4b62360e61b81526001600160a01b038416600482015260248101829052604401610614565b604080518082019091525f80825260208201526001600160a01b0383165f908152600a60205260409020610bf690836119c3565b6001600160a01b0384166113325760405163e602df0560e01b81525f6004820152602401610614565b6001600160a01b03831661135b57604051634a1406b160e11b81525f6004820152602401610614565b6001600160a01b038085165f9081526001602090815260408083209387168352929052208290558015610cf457826001600160a01b0316846001600160a01b03167f8c5be1e5ebec7d5bd14f71427d1e84f3dd0314c0f7b2291e5b200ac8c7c3b925846040516113cd91815260200190565b60405180910390a350505050565b610c7a838383611a30565b5f600182116113f3575090565b816001600160801b821061140c5760809190911c9060401b5b6801000000000000000082106114275760409190911c9060201b5b640100000000821061143e5760209190911c9060101b5b6201000082106114535760109190911c9060081b5b61010082106114675760089190911c9060041b5b6010821061147a5760049190911c9060021b5b600482106114865760011b5b600302600190811c9081858161149e5761149e612306565b048201901c905060018185816114b6576114b6612306565b048201901c905060018185816114ce576114ce612306565b048201901c905060018185816114e6576114e6612306565b048201901c905060018185816114fe576114fe612306565b048201901c9050600181858161151657611516612306565b048201901c905061153581858161152f5761152f612306565b04821190565b90039392505050565b5f5b81831015611595575f6115538484611a96565b5f8781526020902090915065ffffffffffff86169082015465ffffffffffff1611156115815780925061158f565b61158c8160016122a2565b93505b50611540565b509392505050565b60055460ff1661066757604051638dfc202b60e01b815260040160405180910390fd5b6001600160a01b0381165f9081526020819052604081205461059c565b816001600160a01b0316836001600160a01b0316141580156115fe57505f81115b15610c7a576001600160a01b038316156116a5576001600160a01b0383165f908152600a60205260408120819061164090610c6261163b86611ab0565b611ae3565b6001600160d01b031691506001600160d01b03169150846001600160a01b03167fdec2bacdd2f05b59de34da9b523dff8be42e5e38e818c82fdb0bae774387a724838360405161169a929190918252602082015260400190565b60405180910390a250505b6001600160a01b03821615610c7a576001600160a01b0382165f908152600a6020526040812081906116dd90610c5761163b86611ab0565b6001600160d01b031691506001600160d01b03169150836001600160a01b03167fdec2bacdd2f05b59de34da9b523dff8be42e5e38e818c82fdb0bae774387a7248383604051611737929190918252602082015260400190565b60405180910390a25050505050565b5f63ffffffff821115610eb2576040516306dfcc6560e41b81526020600482015260248101839052604401610614565b60055460ff16156106675760405163d93c066560e01b815260040160405180910390fd5b606060ff83146117b4576117ad83611b1b565b905061059c565b8180546117c0906121e7565b80601f01602080910402602001604051908101604052809291908181526020018280546117ec906121e7565b80156118375780601f1061180e57610100808354040283529160200191611837565b820191905f5260205f20905b81548152906001019060200180831161181a57829003601f168201915b5050505050905061059c565b5f80807f7fffffffffffffffffffffffffffffff5d576e7357a4501ddfe92f46681b20a084111561187c57505f91506003905082611901565b604080515f808252602082018084528a905260ff891692820192909252606081018790526080810186905260019060a0016020604051602081039080840390855afa1580156118cd573d5f5f3e3d5ffd5b5050604051601f1901519150506001600160a01b0381166118f857505f925060019150829050611901565b92505f91508190505b9450945094915050565b5f82600381111561191e5761191e61231a565b03611927575050565b600182600381111561193b5761193b61231a565b036119595760405163f645eedf60e01b815260040160405180910390fd5b600282600381111561196d5761196d61231a565b0361198e5760405163fce698f760e01b815260048101829052602401610614565b60038260038111156119a2576119a261231a565b0361067b576040516335e2f38360e21b815260048101829052602401610614565b604080518082019091525f8082526020820152825f018263ffffffff16815481106119f0576119f061232e565b5f9182526020918290206040805180820190915291015465ffffffffffff81168252600160301b90046001600160d01b0316918101919091529392505050565b611a3b838383611b58565b6001600160a01b038316611a8b575f611a5360025490565b90506001600160d01b0380821115611a8857604051630e58ae9360e11b81526004810183905260248101829052604401610614565b50505b610c7a838383611b6b565b5f611aa46002848418612342565b610bf6908484166122a2565b5f6001600160d01b03821115610eb2576040516306dfcc6560e41b815260d0600482015260248101839052604401610614565b5f5f611b0e611af0610979565b611b06611afc886111fc565b868863ffffffff16565b879190611be0565b915091505b935093915050565b60605f611b2783611bed565b6040805160208082528183019092529192505f91906020820181803683375050509182525060208101929092525090565b611b60611776565b610c7a838383611c14565b6001600160a01b038316611b8d57611b8a600b610c5761163b84611ab0565b50505b6001600160a01b038216611baf57611bac600b610c6261163b84611ab0565b50505b6001600160a01b038381165f90815260096020526040808220548584168352912054610c7a929182169116836115dd565b5f80611b0e858585611d3a565b5f60ff8216601f81111561059c57604051632cd44ac360e21b815260040160405180910390fd5b6001600160a01b038316611c3e578060025f828254611c3391906122a2565b90915550611cae9050565b6001600160a01b0383165f9081526020819052604090205481811015611c905760405163391434e360e21b81526001600160a01b03851660048201526024810182905260448101839052606401610614565b6001600160a01b0384165f9081526020819052604090209082900390555b6001600160a01b038216611cca57600280548290039055611ce8565b6001600160a01b0382165f9081526020819052604090208054820190555b816001600160a01b0316836001600160a01b03167fddf252ad1be2c89b69c2b068fc378daa952ba7f163c4a11628f55a4df523b3ef83604051611d2d91815260200190565b60405180910390a3505050565b82545f9081908015611e30575f611d5687610f366001856122b5565b805490915065ffffffffffff80821691600160301b90046001600160d01b0316908816821115611d9957604051632520601d60e01b815260040160405180910390fd5b8765ffffffffffff168265ffffffffffff1603611dd257825465ffffffffffff16600160301b6001600160d01b03891602178355611e22565b6040805180820190915265ffffffffffff808a1682526001600160d01b03808a1660208085019182528d54600181018f555f8f81529190912094519151909216600160301b029216919091179101555b9450859350611b1392505050565b50506040805180820190915265ffffffffffff80851682526001600160d01b0380851660208085019182528854600181018a555f8a815291822095519251909316600160301b029190931617920191909155905081611b13565b5f81518084528060208401602086015e5f602082860101526020601f19601f83011685010191505092915050565b602081525f610bf66020830184611e8a565b6001600160a01b0381168114610c54575f5ffd5b5f5f60408385031215611eef575f5ffd5b8235611efa81611eca565b946020939093013593505050565b5f5f5f60608486031215611f1a575f5ffd5b8335611f2581611eca565b92506020840135611f3581611eca565b929592945050506040919091013590565b5f60208284031215611f56575f5ffd5b8135610bf681611eca565b5f5f5f5f5f60808688031215611f75575f5ffd5b8535611f8081611eca565b94506020860135611f9081611eca565b935060408601359250606086013567ffffffffffffffff811115611fb2575f5ffd5b8601601f81018813611fc2575f5ffd5b803567ffffffffffffffff811115611fd8575f5ffd5b886020828401011115611fe9575f5ffd5b959894975092955050506020019190565b60ff60f81b8816815260e060208201525f61201860e0830189611e8a565b828103604084015261202a8189611e8a565b606084018890526001600160a01b038716608085015260a0840186905283810360c0850152845180825260208087019350909101905f5b8181101561207f578351835260209384019390920191600101612061565b50909b9a5050505050505050505050565b5f602082840312156120a0575f5ffd5b5035919050565b803560ff811681146120b7575f5ffd5b919050565b5f5f5f5f5f5f60c087890312156120d1575f5ffd5b86356120dc81611eca565b955060208701359450604087013593506120f8606088016120a7565b9598949750929560808101359460a0909101359350915050565b5f5f5f5f5f5f5f60e0888a031215612128575f5ffd5b873561213381611eca565b9650602088013561214381611eca565b9550604088013594506060880135935061215f608089016120a7565b9699959850939692959460a0840135945060c09093013592915050565b5f5f6040838503121561218d575f5ffd5b823561219881611eca565b915060208301356121a881611eca565b809150509250929050565b5f5f604083850312156121c4575f5ffd5b82356121cf81611eca565b9150602083013563ffffffff811681146121a8575f5ffd5b600181811c908216806121fb57607f821691505b60208210810361221957634e487b7160e01b5f52602260045260245ffd5b50919050565b6001600160a01b03878116825286166020820152604081018590526060810184905260a0608082018190528101829052818360c08301375f81830160c090810191909152601f909201601f1916010195945050505050565b5f60208284031215612287575f5ffd5b5051919050565b634e487b7160e01b5f52601160045260245ffd5b8082018082111561059c5761059c61228e565b8181038181111561059c5761059c61228e565b6001600160d01b03818116838216019081111561059c5761059c61228e565b6001600160d01b03828116828216039081111561059c5761059c61228e565b634e487b7160e01b5f52601260045260245ffd5b634e487b7160e01b5f52602160045260245ffd5b634e487b7160e01b5f52603260045260245ffd5b5f8261235c57634e487b7160e01b5f52601260045260245ffd5b50049056fea26469706673582212202b28143e7fbf25e8d942b3c2d683c8dae70a4acf339c48e8a4ac83b53269d53a64736f6c634300081c0033dec2bacdd2f05b59de34da9b523dff8be42e5e38e818c82fdb0bae774387a724",
			"opcodes": "PUSH2 0x160 PUSH1 0x40 MSTORE CALLVALUE DUP1 ISZERO PUSH2 0x10 JUMPI PUSH0 PUSH0 REVERT JUMPDEST POP PUSH1 0x40 MLOAD PUSH2 0x305E CODESIZE SUB DUP1 PUSH2 0x305E DUP4 CODECOPY DUP2 ADD PUSH1 0x40 DUP2 SWAP1 MSTORE PUSH2 0x2F SWAP2 PUSH2 0x90F JUMP JUMPDEST PUSH1 0x40 MLOAD DUP1 PUSH1 0x40 ADD PUSH1 0x40 MSTORE DUP1 PUSH1 0x7 DUP2 MSTORE PUSH1 0x20 ADD PUSH7 0x4E4F5641524943 PUSH1 0xC8 SHL DUP2 MSTORE POP DUP1 PUSH1 0x40 MLOAD DUP1 PUSH1 0x40 ADD PUSH1 0x40 MSTORE DUP1 PUSH1 0x1 DUP2 MSTORE PUSH1 0x20 ADD PUSH1 0x31 PUSH1 0xF8 SHL DUP2 MSTORE POP DUP4 PUSH1 0x40 MLOAD DUP1 PUSH1 0x40 ADD PUSH1 0x40 MSTORE DUP1 PUSH1 0x7 DUP2 MSTORE PUSH1 0x20 ADD PUSH7 0x4E4F5641524943 PUSH1 0xC8 SHL DUP2 MSTORE POP PUSH1 0x40 MLOAD DUP1 PUSH1 0x40 ADD PUSH1 0x40 MSTORE DUP1 PUSH1 0x3 DUP2 MSTORE PUSH1 0x20 ADD PUSH3 0x9CACB PUSH1 0xEB SHL DUP2 MSTORE POP DUP2 PUSH1 0x3 SWAP1 DUP2 PUSH2 0xB6 SWAP2 SWAP1 PUSH2 0x9CC JUMP JUMPDEST POP PUSH1 0x4 PUSH2 0xC3 DUP3 DUP3 PUSH2 0x9CC JUMP JUMPDEST POP POP PUSH1 0x5 DUP1 SLOAD PUSH1 0xFF NOT AND SWAP1 SSTORE POP PUSH1 0x1 PUSH1 0x1 PUSH1 0xA0 SHL SUB DUP2 AND PUSH2 0xFE JUMPI PUSH1 0x40 MLOAD PUSH4 0x1E4FBDF7 PUSH1 0xE0 SHL DUP2 MSTORE PUSH0 PUSH1 0x4 DUP3 ADD MSTORE PUSH1 0x24 ADD JUMPDEST PUSH1 0x40 MLOAD DUP1 SWAP2 SUB SWAP1 REVERT JUMPDEST PUSH2 0x107 DUP2 PUSH2 0x1DF JUMP JUMPDEST POP PUSH2 0x113 DUP3 PUSH1 0x6 PUSH2 0x238 JUMP JUMPDEST PUSH2 0x120 MSTORE PUSH2 0x122 DUP2 PUSH1 0x7 PUSH2 0x238 JUMP JUMPDEST PUSH2 0x140 MSTORE DUP2 MLOAD PUSH1 0x20 DUP1 DUP5 ADD SWAP2 SWAP1 SWAP2 KECCAK256 PUSH1 0xE0 MSTORE DUP2 MLOAD SWAP1 DUP3 ADD KECCAK256 PUSH2 0x100 MSTORE CHAINID PUSH1 0xA0 MSTORE PUSH2 0x1AE PUSH1 0xE0 MLOAD PUSH2 0x100 MLOAD PUSH1 0x40 DUP1 MLOAD PUSH32 0x8B73C3C69BB8FE3D512ECC4CF759CC79239F7B179B0FFACAA9A75D522B39400F PUSH1 0x20 DUP3 ADD MSTORE SWAP1 DUP2 ADD SWAP3 SWAP1 SWAP3 MSTORE PUSH1 0x60 DUP3 ADD MSTORE CHAINID PUSH1 0x80 DUP3 ADD MSTORE ADDRESS PUSH1 0xA0 DUP3 ADD MSTORE PUSH0 SWAP1 PUSH1 0xC0 ADD PUSH1 0x40 MLOAD PUSH1 0x20 DUP2 DUP4 SUB SUB DUP2 MSTORE SWAP1 PUSH1 0x40 MSTORE DUP1 MLOAD SWAP1 PUSH1 0x20 ADD KECCAK256 SWAP1 POP SWAP1 JUMP JUMPDEST PUSH1 0x80 MSTORE POP POP ADDRESS PUSH1 0xC0 MSTORE POP PUSH2 0x1D9 CALLER PUSH2 0x1C8 PUSH1 0x12 PUSH1 0xA PUSH2 0xB75 JUMP JUMPDEST PUSH2 0x1D4 SWAP1 PUSH2 0xA34 PUSH2 0xB83 JUMP JUMPDEST PUSH2 0x26A JUMP JUMPDEST POP PUSH2 0xC56 JUMP JUMPDEST PUSH1 0x5 DUP1 SLOAD PUSH1 0x1 PUSH1 0x1 PUSH1 0xA0 SHL SUB DUP4 DUP2 AND PUSH2 0x100 DUP2 DUP2 MUL PUSH2 0x100 PUSH1 0x1 PUSH1 0xA8 SHL SUB NOT DUP6 AND OR SWAP1 SWAP5 SSTORE PUSH1 0x40 MLOAD SWAP4 SWAP1 SWAP3 DIV AND SWAP2 DUP3 SWAP1 PUSH32 0x8BE0079C531659141344CD1FD0A4F28419497F9722A3DAAFE3B4186F6B6457E0 SWAP1 PUSH0 SWAP1 LOG3 POP POP JUMP JUMPDEST PUSH0 PUSH1 0x20 DUP4 MLOAD LT ISZERO PUSH2 0x253 JUMPI PUSH2 0x24C DUP4 PUSH2 0x2A2 JUMP JUMPDEST SWAP1 POP PUSH2 0x264 JUMP JUMPDEST DUP2 PUSH2 0x25E DUP5 DUP3 PUSH2 0x9CC JUMP JUMPDEST POP PUSH1 0xFF SWAP1 POP JUMPDEST SWAP3 SWAP2 POP POP JUMP JUMPDEST PUSH1 0x1 PUSH1 0x1 PUSH1 0xA0 SHL SUB DUP3 AND PUSH2 0x293 JUMPI PUSH1 0x40 MLOAD PUSH4 0xEC442F05 PUSH1 0xE0 SHL DUP2 MSTORE PUSH0 PUSH1 0x4 DUP3 ADD MSTORE PUSH1 0x24 ADD PUSH2 0xF5 JUMP JUMPDEST PUSH2 0x29E PUSH0 DUP4 DUP4 PUSH2 0x2DF JUMP JUMPDEST POP POP JUMP JUMPDEST PUSH0 PUSH0 DUP3 SWAP1 POP PUSH1 0x1F DUP2 MLOAD GT ISZERO PUSH2 0x2CC JUMPI DUP3 PUSH1 0x40 MLOAD PUSH4 0x305A27A9 PUSH1 0xE0 SHL DUP2 MSTORE PUSH1 0x4 ADD PUSH2 0xF5 SWAP2 SWAP1 PUSH2 0xB9A JUMP JUMPDEST DUP1 MLOAD PUSH2 0x2D7 DUP3 PUSH2 0xBCF JUMP JUMPDEST OR SWAP4 SWAP3 POP POP POP JUMP JUMPDEST PUSH2 0x2EA DUP4 DUP4 DUP4 PUSH2 0x2EF JUMP JUMPDEST POP POP POP JUMP JUMPDEST PUSH2 0x2FA DUP4 DUP4 DUP4 PUSH2 0x355 JUMP JUMPDEST PUSH1 0x1 PUSH1 0x1 PUSH1 0xA0 SHL SUB DUP4 AND PUSH2 0x34A JUMPI PUSH0 PUSH2 0x312 PUSH1 0x2 SLOAD SWAP1 JUMP JUMPDEST SWAP1 POP PUSH1 0x1 PUSH1 0x1 PUSH1 0xD0 SHL SUB DUP1 DUP3 GT ISZERO PUSH2 0x347 JUMPI PUSH1 0x40 MLOAD PUSH4 0xE58AE93 PUSH1 0xE1 SHL DUP2 MSTORE PUSH1 0x4 DUP2 ADD DUP4 SWAP1 MSTORE PUSH1 0x24 DUP2 ADD DUP3 SWAP1 MSTORE PUSH1 0x44 ADD PUSH2 0xF5 JUMP JUMPDEST POP POP JUMPDEST PUSH2 0x2EA DUP4 DUP4 DUP4 PUSH2 0x368 JUMP JUMPDEST PUSH2 0x35D PUSH2 0x3F0 JUMP JUMPDEST PUSH2 0x2EA DUP4 DUP4 DUP4 PUSH2 0x416 JUMP JUMPDEST PUSH1 0x1 PUSH1 0x1 PUSH1 0xA0 SHL SUB DUP4 AND PUSH2 0x396 JUMPI PUSH2 0x393 PUSH1 0xB PUSH2 0xC57 PUSH2 0x53C PUSH1 0x20 SHL OR PUSH2 0x38E DUP5 PUSH2 0x54E JUMP JUMPDEST PUSH2 0x585 JUMP JUMPDEST POP POP JUMPDEST PUSH1 0x1 PUSH1 0x1 PUSH1 0xA0 SHL SUB DUP3 AND PUSH2 0x3BF JUMPI PUSH2 0x3BC PUSH1 0xB PUSH2 0xC62 PUSH2 0x5BA PUSH1 0x20 SHL OR PUSH2 0x38E DUP5 PUSH2 0x54E JUMP JUMPDEST POP POP JUMPDEST PUSH1 0x1 PUSH1 0x1 PUSH1 0xA0 SHL SUB DUP4 DUP2 AND PUSH0 SWAP1 DUP2 MSTORE PUSH1 0x9 PUSH1 0x20 MSTORE PUSH1 0x40 DUP1 DUP3 KECCAK256 SLOAD DUP6 DUP5 AND DUP4 MSTORE SWAP2 KECCAK256 SLOAD PUSH2 0x2EA SWAP3 SWAP2 DUP3 AND SWAP2 AND DUP4 PUSH2 0x5C5 JUMP JUMPDEST PUSH1 0x5 SLOAD PUSH1 0xFF AND ISZERO PUSH2 0x414 JUMPI PUSH1 0x40 MLOAD PUSH4 0xD93C0665 PUSH1 0xE0 SHL DUP2 MSTORE PUSH1 0x4 ADD PUSH1 0x40 MLOAD DUP1 SWAP2 SUB SWAP1 REVERT JUMPDEST JUMP JUMPDEST PUSH1 0x1 PUSH1 0x1 PUSH1 0xA0 SHL SUB DUP4 AND PUSH2 0x440 JUMPI DUP1 PUSH1 0x2 PUSH0 DUP3 DUP3 SLOAD PUSH2 0x435 SWAP2 SWAP1 PUSH2 0xBF2 JUMP JUMPDEST SWAP1 SWAP2 SSTORE POP PUSH2 0x4B0 SWAP1 POP JUMP JUMPDEST PUSH1 0x1 PUSH1 0x1 PUSH1 0xA0 SHL SUB DUP4 AND PUSH0 SWAP1 DUP2 MSTORE PUSH1 0x20 DUP2 SWAP1 MSTORE PUSH1 0x40 SWAP1 KECCAK256 SLOAD DUP2 DUP2 LT ISZERO PUSH2 0x492 JUMPI PUSH1 0x40 MLOAD PUSH4 0x391434E3 PUSH1 0xE2 SHL DUP2 MSTORE PUSH1 0x1 PUSH1 0x1 PUSH1 0xA0 SHL SUB DUP6 AND PUSH1 0x4 DUP3 ADD MSTORE PUSH1 0x24 DUP2 ADD DUP3 SWAP1 MSTORE PUSH1 0x44 DUP2 ADD DUP4 SWAP1 MSTORE PUSH1 0x64 ADD PUSH2 0xF5 JUMP JUMPDEST PUSH1 0x1 PUSH1 0x1 PUSH1 0xA0 SHL SUB DUP5 AND PUSH0 SWAP1 DUP2 MSTORE PUSH1 0x20 DUP2 SWAP1 MSTORE PUSH1 0x40 SWAP1 KECCAK256 SWAP1 DUP3 SWAP1 SUB SWAP1 SSTORE JUMPDEST PUSH1 0x1 PUSH1 0x1 PUSH1 0xA0 SHL SUB DUP3 AND PUSH2 0x4CC JUMPI PUSH1 0x2 DUP1 SLOAD DUP3 SWAP1 SUB SWAP1 SSTORE PUSH2 0x4EA JUMP JUMPDEST PUSH1 0x1 PUSH1 0x1 PUSH1 0xA0 SHL SUB DUP3 AND PUSH0 SWAP1 DUP2 MSTORE PUSH1 0x20 DUP2 SWAP1 MSTORE PUSH1 0x40 SWAP1 KECCAK256 DUP1 SLOAD DUP3 ADD SWAP1 SSTORE JUMPDEST DUP2 PUSH1 0x1 PUSH1 0x1 PUSH1 0xA0 SHL SUB AND DUP4 PUSH1 0x1 PUSH1 0x1 PUSH1 0xA0 SHL SUB AND PUSH32 0xDDF252AD1BE2C89B69C2B068FC378DAA952BA7F163C4A11628F55A4DF523B3EF DUP4 PUSH1 0x40 MLOAD PUSH2 0x52F SWAP2 DUP2 MSTORE PUSH1 0x20 ADD SWAP1 JUMP JUMPDEST PUSH1 0x40 MLOAD DUP1 SWAP2 SUB SWAP1 LOG3 POP POP POP JUMP JUMPDEST PUSH0 PUSH2 0x547 DUP3 DUP5 PUSH2 0xC05 JUMP JUMPDEST SWAP4 SWAP3 POP POP POP JUMP JUMPDEST PUSH0 PUSH1 0x1 PUSH1 0x1 PUSH1 0xD0 SHL SUB DUP3 GT ISZERO PUSH2 0x581 JUMPI PUSH1 0x40 MLOAD PUSH4 0x6DFCC65 PUSH1 0xE4 SHL DUP2 MSTORE PUSH1 0xD0 PUSH1 0x4 DUP3 ADD MSTORE PUSH1 0x24 DUP2 ADD DUP4 SWAP1 MSTORE PUSH1 0x44 ADD PUSH2 0xF5 JUMP JUMPDEST POP SWAP1 JUMP JUMPDEST PUSH0 DUP1 PUSH2 0x5AD PUSH2 0x592 PUSH2 0x715 JUMP JUMPDEST PUSH2 0x5A5 PUSH2 0x59E DUP9 PUSH2 0x723 JUMP JUMPDEST DUP7 DUP9 PUSH1 0x20 SHR JUMP JUMPDEST DUP8 SWAP2 SWAP1 PUSH2 0x76A JUMP JUMPDEST SWAP2 POP SWAP2 POP JUMPDEST SWAP4 POP SWAP4 SWAP2 POP POP JUMP JUMPDEST PUSH0 PUSH2 0x547 DUP3 DUP5 PUSH2 0xC24 JUMP JUMPDEST DUP2 PUSH1 0x1 PUSH1 0x1 PUSH1 0xA0 SHL SUB AND DUP4 PUSH1 0x1 PUSH1 0x1 PUSH1 0xA0 SHL SUB AND EQ ISZERO DUP1 ISZERO PUSH2 0x5E6 JUMPI POP PUSH0 DUP2 GT JUMPDEST ISZERO PUSH2 0x2EA JUMPI PUSH1 0x1 PUSH1 0x1 PUSH1 0xA0 SHL SUB DUP4 AND ISZERO PUSH2 0x67E JUMPI PUSH1 0x1 PUSH1 0x1 PUSH1 0xA0 SHL SUB DUP4 AND PUSH0 SWAP1 DUP2 MSTORE PUSH1 0xA PUSH1 0x20 SWAP1 DUP2 MSTORE PUSH1 0x40 DUP3 KECCAK256 DUP3 SWAP2 PUSH2 0x62C SWAP2 SWAP1 PUSH2 0x5BA SWAP1 SHL PUSH2 0xC62 OR PUSH2 0x38E DUP7 PUSH2 0x54E JUMP JUMPDEST PUSH1 0x1 PUSH1 0x1 PUSH1 0xD0 SHL SUB AND SWAP2 POP PUSH1 0x1 PUSH1 0x1 PUSH1 0xD0 SHL SUB AND SWAP2 POP DUP5 PUSH1 0x1 PUSH1 0x1 PUSH1 0xA0 SHL SUB AND PUSH0 MLOAD PUSH1 0x20 PUSH2 0x303E PUSH0 CODECOPY PUSH0 MLOAD SWAP1 PUSH0 MSTORE DUP4 DUP4 PUSH1 0x40 MLOAD PUSH2 0x673 SWAP3 SWAP2 SWAP1 SWAP2 DUP3 MSTORE PUSH1 0x20 DUP3 ADD MSTORE PUSH1 0x40 ADD SWAP1 JUMP JUMPDEST PUSH1 0x40 MLOAD DUP1 SWAP2 SUB SWAP1 LOG2 POP POP JUMPDEST PUSH1 0x1 PUSH1 0x1 PUSH1 0xA0 SHL SUB DUP3 AND ISZERO PUSH2 0x2EA JUMPI PUSH1 0x1 PUSH1 0x1 PUSH1 0xA0 SHL SUB DUP3 AND PUSH0 SWAP1 DUP2 MSTORE PUSH1 0xA PUSH1 0x20 SWAP1 DUP2 MSTORE PUSH1 0x40 DUP3 KECCAK256 DUP3 SWAP2 PUSH2 0x6BF SWAP2 SWAP1 PUSH2 0x53C SWAP1 SHL PUSH2 0xC57 OR PUSH2 0x38E DUP7 PUSH2 0x54E JUMP JUMPDEST PUSH1 0x1 PUSH1 0x1 PUSH1 0xD0 SHL SUB AND SWAP2 POP PUSH1 0x1 PUSH1 0x1 PUSH1 0xD0 SHL SUB AND SWAP2 POP DUP4 PUSH1 0x1 PUSH1 0x1 PUSH1 0xA0 SHL SUB AND PUSH0 MLOAD PUSH1 0x20 PUSH2 0x303E PUSH0 CODECOPY PUSH0 MLOAD SWAP1 PUSH0 MSTORE DUP4 DUP4 PUSH1 0x40 MLOAD PUSH2 0x706 SWAP3 SWAP2 SWAP1 SWAP2 DUP3 MSTORE PUSH1 0x20 DUP3 ADD MSTORE PUSH1 0x40 ADD SWAP1 JUMP JUMPDEST PUSH1 0x40 MLOAD DUP1 SWAP2 SUB SWAP1 LOG2 POP POP POP POP POP JUMP JUMPDEST PUSH0 PUSH2 0x71E PUSH2 0x777 JUMP JUMPDEST SWAP1 POP SWAP1 JUMP JUMPDEST DUP1 SLOAD PUSH0 SWAP1 DUP1 ISZERO PUSH2 0x762 JUMPI PUSH2 0x749 DUP4 PUSH2 0x73C PUSH1 0x1 DUP5 PUSH2 0xC43 JUMP JUMPDEST PUSH0 SWAP2 DUP3 MSTORE PUSH1 0x20 SWAP1 SWAP2 KECCAK256 ADD SWAP1 JUMP JUMPDEST SLOAD PUSH7 0x1000000000000 SWAP1 DIV PUSH1 0x1 PUSH1 0x1 PUSH1 0xD0 SHL SUB AND PUSH2 0x547 JUMP JUMPDEST PUSH0 SWAP4 SWAP3 POP POP POP JUMP JUMPDEST PUSH0 DUP1 PUSH2 0x5AD DUP6 DUP6 DUP6 PUSH2 0x781 JUMP JUMPDEST PUSH0 PUSH2 0x71E NUMBER PUSH2 0x8DD JUMP JUMPDEST DUP3 SLOAD PUSH0 SWAP1 DUP2 SWAP1 DUP1 ISZERO PUSH2 0x880 JUMPI PUSH0 PUSH2 0x79D DUP8 PUSH2 0x73C PUSH1 0x1 DUP6 PUSH2 0xC43 JUMP JUMPDEST DUP1 SLOAD SWAP1 SWAP2 POP PUSH6 0xFFFFFFFFFFFF DUP1 DUP3 AND SWAP2 PUSH7 0x1000000000000 SWAP1 DIV PUSH1 0x1 PUSH1 0x1 PUSH1 0xD0 SHL SUB AND SWAP1 DUP9 AND DUP3 GT ISZERO PUSH2 0x7E3 JUMPI PUSH1 0x40 MLOAD PUSH4 0x2520601D PUSH1 0xE0 SHL DUP2 MSTORE PUSH1 0x4 ADD PUSH1 0x40 MLOAD DUP1 SWAP2 SUB SWAP1 REVERT JUMPDEST DUP8 PUSH6 0xFFFFFFFFFFFF AND DUP3 PUSH6 0xFFFFFFFFFFFF AND SUB PUSH2 0x81F JUMPI DUP3 SLOAD PUSH6 0xFFFFFFFFFFFF AND PUSH7 0x1000000000000 PUSH1 0x1 PUSH1 0x1 PUSH1 0xD0 SHL SUB DUP10 AND MUL OR DUP4 SSTORE PUSH2 0x872 JUMP JUMPDEST PUSH1 0x40 DUP1 MLOAD DUP1 DUP3 ADD SWAP1 SWAP2 MSTORE PUSH6 0xFFFFFFFFFFFF DUP1 DUP11 AND DUP3 MSTORE PUSH1 0x1 PUSH1 0x1 PUSH1 0xD0 SHL SUB DUP1 DUP11 AND PUSH1 0x20 DUP1 DUP6 ADD SWAP2 DUP3 MSTORE DUP14 SLOAD PUSH1 0x1 DUP2 ADD DUP16 SSTORE PUSH0 DUP16 DUP2 MSTORE SWAP2 SWAP1 SWAP2 KECCAK256 SWAP5 MLOAD SWAP2 MLOAD SWAP1 SWAP3 AND PUSH7 0x1000000000000 MUL SWAP3 AND SWAP2 SWAP1 SWAP2 OR SWAP2 ADD SSTORE JUMPDEST SWAP5 POP DUP6 SWAP4 POP PUSH2 0x5B2 SWAP3 POP POP POP JUMP JUMPDEST POP POP PUSH1 0x40 DUP1 MLOAD DUP1 DUP3 ADD SWAP1 SWAP2 MSTORE PUSH6 0xFFFFFFFFFFFF DUP1 DUP6 AND DUP3 MSTORE PUSH1 0x1 PUSH1 0x1 PUSH1 0xD0 SHL SUB DUP1 DUP6 AND PUSH1 0x20 DUP1 DUP6 ADD SWAP2 DUP3 MSTORE DUP9 SLOAD PUSH1 0x1 DUP2 ADD DUP11 SSTORE PUSH0 DUP11 DUP2 MSTORE SWAP2 DUP3 KECCAK256 SWAP6 MLOAD SWAP3 MLOAD SWAP1 SWAP4 AND PUSH7 0x1000000000000 MUL SWAP2 SWAP1 SWAP4 AND OR SWAP3 ADD SWAP2 SWAP1 SWAP2 SSTORE SWAP1 POP DUP2 PUSH2 0x5B2 JUMP JUMPDEST PUSH0 PUSH6 0xFFFFFFFFFFFF DUP3 GT ISZERO PUSH2 0x581 JUMPI PUSH1 0x40 MLOAD PUSH4 0x6DFCC65 PUSH1 0xE4 SHL DUP2 MSTORE PUSH1 0x30 PUSH1 0x4 DUP3 ADD MSTORE PUSH1 0x24 DUP2 ADD DUP4 SWAP1 MSTORE PUSH1 0x44 ADD PUSH2 0xF5 JUMP JUMPDEST PUSH0 PUSH1 0x20 DUP3 DUP5 SUB SLT ISZERO PUSH2 0x91F JUMPI PUSH0 PUSH0 REVERT JUMPDEST DUP2 MLOAD PUSH1 0x1 PUSH1 0x1 PUSH1 0xA0 SHL SUB DUP2 AND DUP2 EQ PUSH2 0x547 JUMPI PUSH0 PUSH0 REVERT JUMPDEST PUSH4 0x4E487B71 PUSH1 0xE0 SHL PUSH0 MSTORE PUSH1 0x41 PUSH1 0x4 MSTORE PUSH1 0x24 PUSH0 REVERT JUMPDEST PUSH1 0x1 DUP2 DUP2 SHR SWAP1 DUP3 AND DUP1 PUSH2 0x95D JUMPI PUSH1 0x7F DUP3 AND SWAP2 POP JUMPDEST PUSH1 0x20 DUP3 LT DUP2 SUB PUSH2 0x97B JUMPI PUSH4 0x4E487B71 PUSH1 0xE0 SHL PUSH0 MSTORE PUSH1 0x22 PUSH1 0x4 MSTORE PUSH1 0x24 PUSH0 REVERT JUMPDEST POP SWAP2 SWAP1 POP JUMP JUMPDEST PUSH1 0x1F DUP3 GT ISZERO PUSH2 0x2EA JUMPI DUP1 PUSH0 MSTORE PUSH1 0x20 PUSH0 KECCAK256 PUSH1 0x1F DUP5 ADD PUSH1 0x5 SHR DUP2 ADD PUSH1 0x20 DUP6 LT ISZERO PUSH2 0x9A6 JUMPI POP DUP1 JUMPDEST PUSH1 0x1F DUP5 ADD PUSH1 0x5 SHR DUP3 ADD SWAP2 POP JUMPDEST DUP2 DUP2 LT ISZERO PUSH2 0x9C5 JUMPI PUSH0 DUP2 SSTORE PUSH1 0x1 ADD PUSH2 0x9B2 JUMP JUMPDEST POP POP POP POP POP JUMP JUMPDEST DUP2 MLOAD PUSH1 0x1 PUSH1 0x1 PUSH1 0x40 SHL SUB DUP2 GT ISZERO PUSH2 0x9E5 JUMPI PUSH2 0x9E5 PUSH2 0x935 JUMP JUMPDEST PUSH2 0x9F9 DUP2 PUSH2 0x9F3 DUP5 SLOAD PUSH2 0x949 JUMP JUMPDEST DUP5 PUSH2 0x981 JUMP JUMPDEST PUSH1 0x20 PUSH1 0x1F DUP3 GT PUSH1 0x1 DUP2 EQ PUSH2 0xA2B JUMPI PUSH0 DUP4 ISZERO PUSH2 0xA14 JUMPI POP DUP5 DUP3 ADD MLOAD JUMPDEST PUSH0 NOT PUSH1 0x3 DUP6 SWAP1 SHL SHR NOT AND PUSH1 0x1 DUP5 SWAP1 SHL OR DUP5 SSTORE PUSH2 0x9C5 JUMP JUMPDEST PUSH0 DUP5 DUP2 MSTORE PUSH1 0x20 DUP2 KECCAK256 PUSH1 0x1F NOT DUP6 AND SWAP2 JUMPDEST DUP3 DUP2 LT ISZERO PUSH2 0xA5A JUMPI DUP8 DUP6 ADD MLOAD DUP3 SSTORE PUSH1 0x20 SWAP5 DUP6 ADD SWAP5 PUSH1 0x1 SWAP1 SWAP3 ADD SWAP2 ADD PUSH2 0xA3A JUMP JUMPDEST POP DUP5 DUP3 LT ISZERO PUSH2 0xA77 JUMPI DUP7 DUP5 ADD MLOAD PUSH0 NOT PUSH1 0x3 DUP8 SWAP1 SHL PUSH1 0xF8 AND SHR NOT AND DUP2 SSTORE JUMPDEST POP POP POP POP PUSH1 0x1 SWAP1 DUP2 SHL ADD SWAP1 SSTORE POP JUMP JUMPDEST PUSH4 0x4E487B71 PUSH1 0xE0 SHL PUSH0 MSTORE PUSH1 0x11 PUSH1 0x4 MSTORE PUSH1 0x24 PUSH0 REVERT JUMPDEST PUSH1 0x1 DUP2 JUMPDEST PUSH1 0x1 DUP5 GT ISZERO PUSH2 0x5B2 JUMPI DUP1 DUP6 DIV DUP2 GT ISZERO PUSH2 0xAB9 JUMPI PUSH2 0xAB9 PUSH2 0xA86 JUMP JUMPDEST PUSH1 0x1 DUP5 AND ISZERO PUSH2 0xAC7 JUMPI SWAP1 DUP2 MUL SWAP1 JUMPDEST PUSH1 0x1 SWAP4 SWAP1 SWAP4 SHR SWAP3 DUP1 MUL PUSH2 0xA9E JUMP JUMPDEST PUSH0 DUP3 PUSH2 0xAE3 JUMPI POP PUSH1 0x1 PUSH2 0x264 JUMP JUMPDEST DUP2 PUSH2 0xAEF JUMPI POP PUSH0 PUSH2 0x264 JUMP JUMPDEST DUP2 PUSH1 0x1 DUP2 EQ PUSH2 0xB05 JUMPI PUSH1 0x2 DUP2 EQ PUSH2 0xB0F JUMPI PUSH2 0xB2B JUMP JUMPDEST PUSH1 0x1 SWAP2 POP POP PUSH2 0x264 JUMP JUMPDEST PUSH1 0xFF DUP5 GT ISZERO PUSH2 0xB20 JUMPI PUSH2 0xB20 PUSH2 0xA86 JUMP JUMPDEST POP POP PUSH1 0x1 DUP3 SHL PUSH2 0x264 JUMP JUMPDEST POP PUSH1 0x20 DUP4 LT PUSH2 0x133 DUP4 LT AND PUSH1 0x4E DUP5 LT PUSH1 0xB DUP5 LT AND OR ISZERO PUSH2 0xB4E JUMPI POP DUP2 DUP2 EXP PUSH2 0x264 JUMP JUMPDEST PUSH2 0xB5A PUSH0 NOT DUP5 DUP5 PUSH2 0xA9A JUMP JUMPDEST DUP1 PUSH0 NOT DIV DUP3 GT ISZERO PUSH2 0xB6D JUMPI PUSH2 0xB6D PUSH2 0xA86 JUMP JUMPDEST MUL SWAP4 SWAP3 POP POP POP JUMP JUMPDEST PUSH0 PUSH2 0x547 PUSH1 0xFF DUP5 AND DUP4 PUSH2 0xAD5 JUMP JUMPDEST DUP1 DUP3 MUL DUP2 ISZERO DUP3 DUP3 DIV DUP5 EQ OR PUSH2 0x264 JUMPI PUSH2 0x264 PUSH2 0xA86 JUMP JUMPDEST PUSH1 0x20 DUP2 MSTORE PUSH0 DUP3 MLOAD DUP1 PUSH1 0x20 DUP5 ADD MSTORE DUP1 PUSH1 0x20 DUP6 ADD PUSH1 0x40 DUP6 ADD MCOPY PUSH0 PUSH1 0x40 DUP3 DUP6 ADD ADD MSTORE PUSH1 0x40 PUSH1 0x1F NOT PUSH1 0x1F DUP4 ADD AND DUP5 ADD ADD SWAP2 POP POP SWAP3 SWAP2 POP POP JUMP JUMPDEST DUP1 MLOAD PUSH1 0x20 DUP1 DUP4 ADD MLOAD SWAP2 SWAP1 DUP2 LT ISZERO PUSH2 0x97B JUMPI PUSH0 NOT PUSH1 0x20 SWAP2 SWAP1 SWAP2 SUB PUSH1 0x3 SHL SHL AND SWAP2 SWAP1 POP JUMP JUMPDEST DUP1 DUP3 ADD DUP1 DUP3 GT ISZERO PUSH2 0x264 JUMPI PUSH2 0x264 PUSH2 0xA86 JUMP JUMPDEST PUSH1 0x1 PUSH1 0x1 PUSH1 0xD0 SHL SUB DUP2 DUP2 AND DUP4 DUP3 AND ADD SWAP1 DUP2 GT ISZERO PUSH2 0x264 JUMPI PUSH2 0x264 PUSH2 0xA86 JUMP JUMPDEST PUSH1 0x1 PUSH1 0x1 PUSH1 0xD0 SHL SUB DUP3 DUP2 AND DUP3 DUP3 AND SUB SWAP1 DUP2 GT ISZERO PUSH2 0x264 JUMPI PUSH2 0x264 PUSH2 0xA86 JUMP JUMPDEST DUP2 DUP2 SUB DUP2 DUP2 GT ISZERO PUSH2 0x264 JUMPI PUSH2 0x264 PUSH2 0xA86 JUMP JUMPDEST PUSH1 0x80 MLOAD PUSH1 0xA0 MLOAD PUSH1 0xC0 MLOAD PUSH1 0xE0 MLOAD PUSH2 0x100 MLOAD PUSH2 0x120 MLOAD PUSH2 0x140 MLOAD PUSH2 0x2397 PUSH2 0xCA7 PUSH0 CODECOPY PUSH0 PUSH2 0x11D6 ADD MSTORE PUSH0 PUSH2 0x11A9 ADD MSTORE PUSH0 PUSH2 0xE30 ADD MSTORE PUSH0 PUSH2 0xE08 ADD MSTORE PUSH0 PUSH2 0xD63 ADD MSTORE PUSH0 PUSH2 0xD8D ADD MSTORE PUSH0 PUSH2 0xDB7 ADD MSTORE PUSH2 0x2397 PUSH0 RETURN INVALID PUSH1 0x80 PUSH1 0x40 MSTORE CALLVALUE DUP1 ISZERO PUSH2 0xF JUMPI PUSH0 PUSH0 REVERT JUMPDEST POP PUSH1 0x4 CALLDATASIZE LT PUSH2 0x1F2 JUMPI PUSH0 CALLDATALOAD PUSH1 0xE0 SHR DUP1 PUSH4 0x70A08231 GT PUSH2 0x114 JUMPI DUP1 PUSH4 0x95D89B41 GT PUSH2 0xA9 JUMPI DUP1 PUSH4 0xD505ACCF GT PUSH2 0x79 JUMPI DUP1 PUSH4 0xD505ACCF EQ PUSH2 0x449 JUMPI DUP1 PUSH4 0xD9D98CE4 EQ PUSH2 0x45C JUMPI DUP1 PUSH4 0xDD62ED3E EQ PUSH2 0x46F JUMPI DUP1 PUSH4 0xF1127ED8 EQ PUSH2 0x4A7 JUMPI DUP1 PUSH4 0xF2FDE38B EQ PUSH2 0x4E6 JUMPI PUSH0 PUSH0 REVERT JUMPDEST DUP1 PUSH4 0x95D89B41 EQ PUSH2 0x408 JUMPI DUP1 PUSH4 0x9AB24EB0 EQ PUSH2 0x410 JUMPI DUP1 PUSH4 0xA9059CBB EQ PUSH2 0x423 JUMPI DUP1 PUSH4 0xC3CDA520 EQ PUSH2 0x436 JUMPI PUSH0 PUSH0 REVERT JUMPDEST DUP1 PUSH4 0x84B0196E GT PUSH2 0xE4 JUMPI DUP1 PUSH4 0x84B0196E EQ PUSH2 0x3A5 JUMPI DUP1 PUSH4 0x8DA5CB5B EQ PUSH2 0x3C0 JUMPI DUP1 PUSH4 0x8E539E8C EQ PUSH2 0x3D6 JUMPI DUP1 PUSH4 0x91DDADF4 EQ PUSH2 0x3E9 JUMPI PUSH0 PUSH0 REVERT JUMPDEST DUP1 PUSH4 0x70A08231 EQ PUSH2 0x35A JUMPI DUP1 PUSH4 0x715018A6 EQ PUSH2 0x382 JUMPI DUP1 PUSH4 0x7ECEBE00 EQ PUSH2 0x38A JUMPI DUP1 PUSH4 0x8456CB59 EQ PUSH2 0x39D JUMPI PUSH0 PUSH0 REVERT JUMPDEST DUP1 PUSH4 0x40C10F19 GT PUSH2 0x18A JUMPI DUP1 PUSH4 0x5C975ABB GT PUSH2 0x15A JUMPI DUP1 PUSH4 0x5C975ABB EQ PUSH2 0x301 JUMPI DUP1 PUSH4 0x5CFFE9DE EQ PUSH2 0x30C JUMPI DUP1 PUSH4 0x613255AB EQ PUSH2 0x31F JUMPI DUP1 PUSH4 0x6FCFFF45 EQ PUSH2 0x332 JUMPI PUSH0 PUSH0 REVERT JUMPDEST DUP1 PUSH4 0x40C10F19 EQ PUSH2 0x290 JUMPI DUP1 PUSH4 0x4BF5D7E9 EQ PUSH2 0x2A3 JUMPI DUP1 PUSH4 0x587CDE1E EQ PUSH2 0x2AB JUMPI DUP1 PUSH4 0x5C19A95C EQ PUSH2 0x2EE JUMPI PUSH0 PUSH0 REVERT JUMPDEST DUP1 PUSH4 0x313CE567 GT PUSH2 0x1C5 JUMPI DUP1 PUSH4 0x313CE567 EQ PUSH2 0x25C JUMPI DUP1 PUSH4 0x3644E515 EQ PUSH2 0x26B JUMPI DUP1 PUSH4 0x3A46B1A8 EQ PUSH2 0x273 JUMPI DUP1 PUSH4 0x3F4BA83A EQ PUSH2 0x286 JUMPI PUSH0 PUSH0 REVERT JUMPDEST DUP1 PUSH4 0x6FDDE03 EQ PUSH2 0x1F6 JUMPI DUP1 PUSH4 0x95EA7B3 EQ PUSH2 0x214 JUMPI DUP1 PUSH4 0x18160DDD EQ PUSH2 0x237 JUMPI DUP1 PUSH4 0x23B872DD EQ PUSH2 0x249 JUMPI JUMPDEST PUSH0 PUSH0 REVERT JUMPDEST PUSH2 0x1FE PUSH2 0x4F9 JUMP JUMPDEST PUSH1 0x40 MLOAD PUSH2 0x20B SWAP2 SWAP1 PUSH2 0x1EB8 JUMP JUMPDEST PUSH1 0x40 MLOAD DUP1 SWAP2 SUB SWAP1 RETURN JUMPDEST PUSH2 0x227 PUSH2 0x222 CALLDATASIZE PUSH1 0x4 PUSH2 0x1EDE JUMP JUMPDEST PUSH2 0x589 JUMP JUMPDEST PUSH1 0x40 MLOAD SWAP1 ISZERO ISZERO DUP2 MSTORE PUSH1 0x20 ADD PUSH2 0x20B JUMP JUMPDEST PUSH1 0x2 SLOAD JUMPDEST PUSH1 0x40 MLOAD SWAP1 DUP2 MSTORE PUSH1 0x20 ADD PUSH2 0x20B JUMP JUMPDEST PUSH2 0x227 PUSH2 0x257 CALLDATASIZE PUSH1 0x4 PUSH2 0x1F08 JUMP JUMPDEST PUSH2 0x5A2 JUMP JUMPDEST PUSH1 0x40 MLOAD PUSH1 0x12 DUP2 MSTORE PUSH1 0x20 ADD PUSH2 0x20B JUMP JUMPDEST PUSH2 0x23B PUSH2 0x5C5 JUMP JUMPDEST PUSH2 0x23B PUSH2 0x281 CALLDATASIZE PUSH1 0x4 PUSH2 0x1EDE JUMP JUMPDEST PUSH2 0x5D3 JUMP JUMPDEST PUSH2 0x28E PUSH2 0x657 JUMP JUMPDEST STOP JUMPDEST PUSH2 0x28E PUSH2 0x29E CALLDATASIZE PUSH1 0x4 PUSH2 0x1EDE JUMP JUMPDEST PUSH2 0x669 JUMP JUMPDEST PUSH2 0x1FE PUSH2 0x67F JUMP JUMPDEST PUSH2 0x2D6 PUSH2 0x2B9 CALLDATASIZE PUSH1 0x4 PUSH2 0x1F46 JUMP JUMPDEST PUSH1 0x1 PUSH1 0x1 PUSH1 0xA0 SHL SUB SWAP1 DUP2 AND PUSH0 SWAP1 DUP2 MSTORE PUSH1 0x9 PUSH1 0x20 MSTORE PUSH1 0x40 SWAP1 KECCAK256 SLOAD AND SWAP1 JUMP JUMPDEST PUSH1 0x40 MLOAD PUSH1 0x1 PUSH1 0x1 PUSH1 0xA0 SHL SUB SWAP1 SWAP2 AND DUP2 MSTORE PUSH1 0x20 ADD PUSH2 0x20B JUMP JUMPDEST PUSH2 0x28E PUSH2 0x2FC CALLDATASIZE PUSH1 0x4 PUSH2 0x1F46 JUMP JUMPDEST PUSH2 0x6F7 JUMP JUMPDEST PUSH1 0x5 SLOAD PUSH1 0xFF AND PUSH2 0x227 JUMP JUMPDEST PUSH2 0x227 PUSH2 0x31A CALLDATASIZE PUSH1 0x4 PUSH2 0x1F61 JUMP JUMPDEST PUSH2 0x702 JUMP JUMPDEST PUSH2 0x23B PUSH2 0x32D CALLDATASIZE PUSH1 0x4 PUSH2 0x1F46 JUMP JUMPDEST PUSH2 0x874 JUMP JUMPDEST PUSH2 0x345 PUSH2 0x340 CALLDATASIZE PUSH1 0x4 PUSH2 0x1F46 JUMP JUMPDEST PUSH2 0x899 JUMP JUMPDEST PUSH1 0x40 MLOAD PUSH4 0xFFFFFFFF SWAP1 SWAP2 AND DUP2 MSTORE PUSH1 0x20 ADD PUSH2 0x20B JUMP JUMPDEST PUSH2 0x23B PUSH2 0x368 CALLDATASIZE PUSH1 0x4 PUSH2 0x1F46 JUMP JUMPDEST PUSH1 0x1 PUSH1 0x1 PUSH1 0xA0 SHL SUB AND PUSH0 SWAP1 DUP2 MSTORE PUSH1 0x20 DUP2 SWAP1 MSTORE PUSH1 0x40 SWAP1 KECCAK256 SLOAD SWAP1 JUMP JUMPDEST PUSH2 0x28E PUSH2 0x8A3 JUMP JUMPDEST PUSH2 0x23B PUSH2 0x398 CALLDATASIZE PUSH1 0x4 PUSH2 0x1F46 JUMP JUMPDEST PUSH2 0x8B4 JUMP JUMPDEST PUSH2 0x28E PUSH2 0x8BE JUMP JUMPDEST PUSH2 0x3AD PUSH2 0x8CE JUMP JUMPDEST PUSH1 0x40 MLOAD PUSH2 0x20B SWAP8 SWAP7 SWAP6 SWAP5 SWAP4 SWAP3 SWAP2 SWAP1 PUSH2 0x1FFA JUMP JUMPDEST PUSH1 0x5 SLOAD PUSH2 0x100 SWAP1 DIV PUSH1 0x1 PUSH1 0x1 PUSH1 0xA0 SHL SUB AND PUSH2 0x2D6 JUMP JUMPDEST PUSH2 0x23B PUSH2 0x3E4 CALLDATASIZE PUSH1 0x4 PUSH2 0x2090 JUMP JUMPDEST PUSH2 0x910 JUMP JUMPDEST PUSH2 0x3F1 PUSH2 0x979 JUMP JUMPDEST PUSH1 0x40 MLOAD PUSH6 0xFFFFFFFFFFFF SWAP1 SWAP2 AND DUP2 MSTORE PUSH1 0x20 ADD PUSH2 0x20B JUMP JUMPDEST PUSH2 0x1FE PUSH2 0x982 JUMP JUMPDEST PUSH2 0x23B PUSH2 0x41E CALLDATASIZE PUSH1 0x4 PUSH2 0x1F46 JUMP JUMPDEST PUSH2 0x991 JUMP JUMPDEST PUSH2 0x227 PUSH2 0x431 CALLDATASIZE PUSH1 0x4 PUSH2 0x1EDE JUMP JUMPDEST PUSH2 0x9C0 JUMP JUMPDEST PUSH2 0x28E PUSH2 0x444 CALLDATASIZE PUSH1 0x4 PUSH2 0x20BC JUMP JUMPDEST PUSH2 0x9CD JUMP JUMPDEST PUSH2 0x28E PUSH2 0x457 CALLDATASIZE PUSH1 0x4 PUSH2 0x2112 JUMP JUMPDEST PUSH2 0xA89 JUMP JUMPDEST PUSH2 0x23B PUSH2 0x46A CALLDATASIZE PUSH1 0x4 PUSH2 0x1EDE JUMP JUMPDEST PUSH2 0xBBF JUMP JUMPDEST PUSH2 0x23B PUSH2 0x47D CALLDATASIZE PUSH1 0x4 PUSH2 0x217C JUMP JUMPDEST PUSH1 0x1 PUSH1 0x1 PUSH1 0xA0 SHL SUB SWAP2 DUP3 AND PUSH0 SWAP1 DUP2 MSTORE PUSH1 0x1 PUSH1 0x20 SWAP1 DUP2 MSTORE PUSH1 0x40 DUP1 DUP4 KECCAK256 SWAP4 SWAP1 SWAP5 AND DUP3 MSTORE SWAP2 SWAP1 SWAP2 MSTORE KECCAK256 SLOAD SWAP1 JUMP JUMPDEST PUSH2 0x4BA PUSH2 0x4B5 CALLDATASIZE PUSH1 0x4 PUSH2 0x21B3 JUMP JUMPDEST PUSH2 0xBFD JUMP JUMPDEST PUSH1 0x40 DUP1 MLOAD DUP3 MLOAD PUSH6 0xFFFFFFFFFFFF AND DUP2 MSTORE PUSH1 0x20 SWAP3 DUP4 ADD MLOAD PUSH1 0x1 PUSH1 0x1 PUSH1 0xD0 SHL SUB AND SWAP3 DUP2 ADD SWAP3 SWAP1 SWAP3 MSTORE ADD PUSH2 0x20B JUMP JUMPDEST PUSH2 0x28E PUSH2 0x4F4 CALLDATASIZE PUSH1 0x4 PUSH2 0x1F46 JUMP JUMPDEST PUSH2 0xC1A JUMP JUMPDEST PUSH1 0x60 PUSH1 0x3 DUP1 SLOAD PUSH2 0x508 SWAP1 PUSH2 0x21E7 JUMP JUMPDEST DUP1 PUSH1 0x1F ADD PUSH1 0x20 DUP1 SWAP2 DIV MUL PUSH1 0x20 ADD PUSH1 0x40 MLOAD SWAP1 DUP2 ADD PUSH1 0x40 MSTORE DUP1 SWAP3 SWAP2 SWAP1 DUP2 DUP2 MSTORE PUSH1 0x20 ADD DUP3 DUP1 SLOAD PUSH2 0x534 SWAP1 PUSH2 0x21E7 JUMP JUMPDEST DUP1 ISZERO PUSH2 0x57F JUMPI DUP1 PUSH1 0x1F LT PUSH2 0x556 JUMPI PUSH2 0x100 DUP1 DUP4 SLOAD DIV MUL DUP4 MSTORE SWAP2 PUSH1 0x20 ADD SWAP2 PUSH2 0x57F JUMP JUMPDEST DUP3 ADD SWAP2 SWAP1 PUSH0 MSTORE PUSH1 0x20 PUSH0 KECCAK256 SWAP1 JUMPDEST DUP2 SLOAD DUP2 MSTORE SWAP1 PUSH1 0x1 ADD SWAP1 PUSH1 0x20 ADD DUP1 DUP4 GT PUSH2 0x562 JUMPI DUP3 SWAP1 SUB PUSH1 0x1F AND DUP3 ADD SWAP2 JUMPDEST POP POP POP POP POP SWAP1 POP SWAP1 JUMP JUMPDEST PUSH0 CALLER PUSH2 0x596 DUP2 DUP6 DUP6 PUSH2 0xC6D JUMP JUMPDEST PUSH1 0x1 SWAP2 POP POP JUMPDEST SWAP3 SWAP2 POP POP JUMP JUMPDEST PUSH0 CALLER PUSH2 0x5AF DUP6 DUP3 DUP6 PUSH2 0xC7F JUMP JUMPDEST PUSH2 0x5BA DUP6 DUP6 DUP6 PUSH2 0xCFA JUMP JUMPDEST POP PUSH1 0x1 SWAP5 SWAP4 POP POP POP POP JUMP JUMPDEST PUSH0 PUSH2 0x5CE PUSH2 0xD57 JUMP JUMPDEST SWAP1 POP SWAP1 JUMP JUMPDEST PUSH0 PUSH0 PUSH2 0x5DD PUSH2 0x979 JUMP JUMPDEST SWAP1 POP DUP1 PUSH6 0xFFFFFFFFFFFF AND DUP4 LT PUSH2 0x61D JUMPI PUSH1 0x40 MLOAD PUSH4 0x7669FC0F PUSH1 0xE1 SHL DUP2 MSTORE PUSH1 0x4 DUP2 ADD DUP5 SWAP1 MSTORE PUSH6 0xFFFFFFFFFFFF DUP3 AND PUSH1 0x24 DUP3 ADD MSTORE PUSH1 0x44 ADD JUMPDEST PUSH1 0x40 MLOAD DUP1 SWAP2 SUB SWAP1 REVERT JUMPDEST PUSH2 0x646 PUSH2 0x629 DUP5 PUSH2 0xE80 JUMP JUMPDEST PUSH1 0x1 PUSH1 0x1 PUSH1 0xA0 SHL SUB DUP7 AND PUSH0 SWAP1 DUP2 MSTORE PUSH1 0xA PUSH1 0x20 MSTORE PUSH1 0x40 SWAP1 KECCAK256 SWAP1 PUSH2 0xEB6 JUMP JUMPDEST PUSH1 0x1 PUSH1 0x1 PUSH1 0xD0 SHL SUB AND SWAP5 SWAP4 POP POP POP POP JUMP JUMPDEST PUSH2 0x65F PUSH2 0xF66 JUMP JUMPDEST PUSH2 0x667 PUSH2 0xF99 JUMP JUMPDEST JUMP JUMPDEST PUSH2 0x671 PUSH2 0xF66 JUMP JUMPDEST PUSH2 0x67B DUP3 DUP3 PUSH2 0xFEB JUMP JUMPDEST POP POP JUMP JUMPDEST PUSH1 0x60 PUSH2 0x689 PUSH2 0x101F JUMP JUMPDEST PUSH6 0xFFFFFFFFFFFF AND PUSH2 0x699 PUSH2 0x979 JUMP JUMPDEST PUSH6 0xFFFFFFFFFFFF AND EQ PUSH2 0x6BF JUMPI PUSH1 0x40 MLOAD PUSH4 0x1BFC1C5 PUSH1 0xE6 SHL DUP2 MSTORE PUSH1 0x4 ADD PUSH1 0x40 MLOAD DUP1 SWAP2 SUB SWAP1 REVERT JUMPDEST POP PUSH1 0x40 DUP1 MLOAD DUP1 DUP3 ADD SWAP1 SWAP2 MSTORE PUSH1 0x1D DUP2 MSTORE PUSH32 0x6D6F64653D626C6F636B6E756D6265722666726F6D3D64656661756C74000000 PUSH1 0x20 DUP3 ADD MSTORE SWAP1 JUMP JUMPDEST CALLER PUSH2 0x67B DUP2 DUP4 PUSH2 0x1029 JUMP JUMPDEST PUSH0 PUSH0 PUSH2 0x70D DUP7 PUSH2 0x874 JUMP JUMPDEST SWAP1 POP DUP1 DUP6 GT ISZERO PUSH2 0x733 JUMPI PUSH1 0x40 MLOAD PUSH4 0xFD9A7609 PUSH1 0xE0 SHL DUP2 MSTORE PUSH1 0x4 DUP2 ADD DUP3 SWAP1 MSTORE PUSH1 0x24 ADD PUSH2 0x614 JUMP JUMPDEST PUSH0 PUSH2 0x73E DUP8 DUP8 PUSH2 0xBBF JUMP JUMPDEST SWAP1 POP PUSH2 0x74A DUP9 DUP8 PUSH2 0xFEB JUMP JUMPDEST PUSH1 0x40 MLOAD PUSH4 0x23E30C8B PUSH1 0xE0 SHL DUP2 MSTORE PUSH32 0x439148F0BBC682CA079E46D6E2C2F0C1E3B820F1A291B069D8882ABF8CF18DD9 SWAP1 PUSH1 0x1 PUSH1 0x1 PUSH1 0xA0 SHL SUB DUP11 AND SWAP1 PUSH4 0x23E30C8B SWAP1 PUSH2 0x7A2 SWAP1 CALLER SWAP1 DUP13 SWAP1 DUP13 SWAP1 DUP9 SWAP1 DUP14 SWAP1 DUP14 SWAP1 PUSH1 0x4 ADD PUSH2 0x221F JUMP JUMPDEST PUSH1 0x20 PUSH1 0x40 MLOAD DUP1 DUP4 SUB DUP2 PUSH0 DUP8 GAS CALL ISZERO DUP1 ISZERO PUSH2 0x7BE JUMPI RETURNDATASIZE PUSH0 PUSH0 RETURNDATACOPY RETURNDATASIZE PUSH0 REVERT JUMPDEST POP POP POP POP PUSH1 0x40 MLOAD RETURNDATASIZE PUSH1 0x1F NOT PUSH1 0x1F DUP3 ADD AND DUP3 ADD DUP1 PUSH1 0x40 MSTORE POP DUP2 ADD SWAP1 PUSH2 0x7E2 SWAP2 SWAP1 PUSH2 0x2277 JUMP JUMPDEST EQ PUSH2 0x80A JUMPI PUSH1 0x40 MLOAD PUSH3 0x678C5B PUSH1 0xE8 SHL DUP2 MSTORE PUSH1 0x1 PUSH1 0x1 PUSH1 0xA0 SHL SUB DUP10 AND PUSH1 0x4 DUP3 ADD MSTORE PUSH1 0x24 ADD PUSH2 0x614 JUMP JUMPDEST PUSH0 PUSH2 0x81F DUP10 ADDRESS PUSH2 0x81A DUP6 DUP12 PUSH2 0x22A2 JUMP JUMPDEST PUSH2 0xC7F JUMP JUMPDEST DUP2 ISZERO DUP1 PUSH2 0x833 JUMPI POP PUSH1 0x1 PUSH1 0x1 PUSH1 0xA0 SHL SUB DUP2 AND ISZERO JUMPDEST ISZERO PUSH2 0x850 JUMPI PUSH2 0x84B DUP10 PUSH2 0x846 DUP5 DUP11 PUSH2 0x22A2 JUMP JUMPDEST PUSH2 0x109A JUMP JUMPDEST PUSH2 0x865 JUMP JUMPDEST PUSH2 0x85A DUP10 DUP9 PUSH2 0x109A JUMP JUMPDEST PUSH2 0x865 DUP10 DUP3 DUP5 PUSH2 0xCFA JUMP JUMPDEST POP PUSH1 0x1 SWAP9 SWAP8 POP POP POP POP POP POP POP POP JUMP JUMPDEST PUSH0 PUSH1 0x1 PUSH1 0x1 PUSH1 0xA0 SHL SUB DUP3 AND ADDRESS EQ PUSH2 0x88B JUMPI PUSH0 PUSH2 0x59C JUMP JUMPDEST PUSH1 0x2 SLOAD PUSH2 0x59C SWAP1 PUSH0 NOT PUSH2 0x22B5 JUMP JUMPDEST PUSH0 PUSH2 0x59C DUP3 PUSH2 0x10CE JUMP JUMPDEST PUSH2 0x8AB PUSH2 0xF66 JUMP JUMPDEST PUSH2 0x667 PUSH0 PUSH2 0x10EF JUMP JUMPDEST PUSH0 PUSH2 0x59C DUP3 PUSH2 0x1148 JUMP JUMPDEST PUSH2 0x8C6 PUSH2 0xF66 JUMP JUMPDEST PUSH2 0x667 PUSH2 0x1165 JUMP JUMPDEST PUSH0 PUSH1 0x60 DUP1 PUSH0 PUSH0 PUSH0 PUSH1 0x60 PUSH2 0x8DF PUSH2 0x11A2 JUMP JUMPDEST PUSH2 0x8E7 PUSH2 0x11CF JUMP JUMPDEST PUSH1 0x40 DUP1 MLOAD PUSH0 DUP1 DUP3 MSTORE PUSH1 0x20 DUP3 ADD SWAP1 SWAP3 MSTORE PUSH1 0xF PUSH1 0xF8 SHL SWAP12 SWAP4 SWAP11 POP SWAP2 SWAP9 POP CHAINID SWAP8 POP ADDRESS SWAP7 POP SWAP5 POP SWAP3 POP SWAP1 POP JUMP JUMPDEST PUSH0 PUSH0 PUSH2 0x91A PUSH2 0x979 JUMP JUMPDEST SWAP1 POP DUP1 PUSH6 0xFFFFFFFFFFFF AND DUP4 LT PUSH2 0x955 JUMPI PUSH1 0x40 MLOAD PUSH4 0x7669FC0F PUSH1 0xE1 SHL DUP2 MSTORE PUSH1 0x4 DUP2 ADD DUP5 SWAP1 MSTORE PUSH6 0xFFFFFFFFFFFF DUP3 AND PUSH1 0x24 DUP3 ADD MSTORE PUSH1 0x44 ADD PUSH2 0x614 JUMP JUMPDEST PUSH2 0x969 PUSH2 0x961 DUP5 PUSH2 0xE80 JUMP JUMPDEST PUSH1 0xB SWAP1 PUSH2 0xEB6 JUMP JUMPDEST PUSH1 0x1 PUSH1 0x1 PUSH1 0xD0 SHL SUB AND SWAP4 SWAP3 POP POP POP JUMP JUMPDEST PUSH0 PUSH2 0x5CE PUSH2 0x101F JUMP JUMPDEST PUSH1 0x60 PUSH1 0x4 DUP1 SLOAD PUSH2 0x508 SWAP1 PUSH2 0x21E7 JUMP JUMPDEST PUSH1 0x1 PUSH1 0x1 PUSH1 0xA0 SHL SUB DUP2 AND PUSH0 SWAP1 DUP2 MSTORE PUSH1 0xA PUSH1 0x20 MSTORE PUSH1 0x40 DUP2 KECCAK256 PUSH2 0x9B1 SWAP1 PUSH2 0x11FC JUMP JUMPDEST PUSH1 0x1 PUSH1 0x1 PUSH1 0xD0 SHL SUB AND SWAP3 SWAP2 POP POP JUMP JUMPDEST PUSH0 CALLER PUSH2 0x596 DUP2 DUP6 DUP6 PUSH2 0xCFA JUMP JUMPDEST DUP4 TIMESTAMP GT ISZERO PUSH2 0x9F1 JUMPI PUSH1 0x40 MLOAD PUSH4 0x2341D787 PUSH1 0xE1 SHL DUP2 MSTORE PUSH1 0x4 DUP2 ADD DUP6 SWAP1 MSTORE PUSH1 0x24 ADD PUSH2 0x614 JUMP JUMPDEST PUSH1 0x40 DUP1 MLOAD PUSH32 0xE48329057BFD03D55E49B547132E39CFFD9C1820AD7B9D4C5307691425D15ADF PUSH1 0x20 DUP3 ADD MSTORE PUSH1 0x1 PUSH1 0x1 PUSH1 0xA0 SHL SUB DUP9 AND SWAP2 DUP2 ADD SWAP2 SWAP1 SWAP2 MSTORE PUSH1 0x60 DUP2 ADD DUP7 SWAP1 MSTORE PUSH1 0x80 DUP2 ADD DUP6 SWAP1 MSTORE PUSH0 SWAP1 PUSH2 0xA6A SWAP1 PUSH2 0xA62 SWAP1 PUSH1 0xA0 ADD PUSH1 0x40 MLOAD PUSH1 0x20 DUP2 DUP4 SUB SUB DUP2 MSTORE SWAP1 PUSH1 0x40 MSTORE DUP1 MLOAD SWAP1 PUSH1 0x20 ADD KECCAK256 PUSH2 0x122B JUMP JUMPDEST DUP6 DUP6 DUP6 PUSH2 0x1257 JUMP JUMPDEST SWAP1 POP PUSH2 0xA76 DUP2 DUP8 PUSH2 0x1283 JUMP JUMPDEST PUSH2 0xA80 DUP2 DUP9 PUSH2 0x1029 JUMP JUMPDEST POP POP POP POP POP POP POP JUMP JUMPDEST DUP4 TIMESTAMP GT ISZERO PUSH2 0xAAD JUMPI PUSH1 0x40 MLOAD PUSH4 0x313C8981 PUSH1 0xE1 SHL DUP2 MSTORE PUSH1 0x4 DUP2 ADD DUP6 SWAP1 MSTORE PUSH1 0x24 ADD PUSH2 0x614 JUMP JUMPDEST PUSH0 PUSH32 0x6E71EDAE12B1B97F4D1F60370FEF10105FA2FAAE0126114A169C64845D6126C9 DUP9 DUP9 DUP9 PUSH2 0xAF8 DUP13 PUSH1 0x1 PUSH1 0x1 PUSH1 0xA0 SHL SUB AND PUSH0 SWAP1 DUP2 MSTORE PUSH1 0x8 PUSH1 0x20 MSTORE PUSH1 0x40 SWAP1 KECCAK256 DUP1 SLOAD PUSH1 0x1 DUP2 ADD SWAP1 SWAP2 SSTORE SWAP1 JUMP JUMPDEST PUSH1 0x40 DUP1 MLOAD PUSH1 0x20 DUP2 ADD SWAP7 SWAP1 SWAP7 MSTORE PUSH1 0x1 PUSH1 0x1 PUSH1 0xA0 SHL SUB SWAP5 DUP6 AND SWAP1 DUP7 ADD MSTORE SWAP3 SWAP1 SWAP2 AND PUSH1 0x60 DUP5 ADD MSTORE PUSH1 0x80 DUP4 ADD MSTORE PUSH1 0xA0 DUP3 ADD MSTORE PUSH1 0xC0 DUP2 ADD DUP7 SWAP1 MSTORE PUSH1 0xE0 ADD PUSH1 0x40 MLOAD PUSH1 0x20 DUP2 DUP4 SUB SUB DUP2 MSTORE SWAP1 PUSH1 0x40 MSTORE DUP1 MLOAD SWAP1 PUSH1 0x20 ADD KECCAK256 SWAP1 POP PUSH0 PUSH2 0xB52 DUP3 PUSH2 0x122B JUMP JUMPDEST SWAP1 POP PUSH0 PUSH2 0xB61 DUP3 DUP8 DUP8 DUP8 PUSH2 0x1257 JUMP JUMPDEST SWAP1 POP DUP10 PUSH1 0x1 PUSH1 0x1 PUSH1 0xA0 SHL SUB AND DUP2 PUSH1 0x1 PUSH1 0x1 PUSH1 0xA0 SHL SUB AND EQ PUSH2 0xBA8 JUMPI PUSH1 0x40 MLOAD PUSH4 0x25C00723 PUSH1 0xE1 SHL DUP2 MSTORE PUSH1 0x1 PUSH1 0x1 PUSH1 0xA0 SHL SUB DUP1 DUP4 AND PUSH1 0x4 DUP4 ADD MSTORE DUP12 AND PUSH1 0x24 DUP3 ADD MSTORE PUSH1 0x44 ADD PUSH2 0x614 JUMP JUMPDEST PUSH2 0xBB3 DUP11 DUP11 DUP11 PUSH2 0xC6D JUMP JUMPDEST POP POP POP POP POP POP POP POP POP POP JUMP JUMPDEST PUSH0 PUSH1 0x1 PUSH1 0x1 PUSH1 0xA0 SHL SUB DUP4 AND ADDRESS EQ PUSH2 0xBF4 JUMPI PUSH1 0x40 MLOAD PUSH4 0x5AD3EDC9 PUSH1 0xE1 SHL DUP2 MSTORE PUSH1 0x1 PUSH1 0x1 PUSH1 0xA0 SHL SUB DUP5 AND PUSH1 0x4 DUP3 ADD MSTORE PUSH1 0x24 ADD PUSH2 0x614 JUMP JUMPDEST PUSH0 JUMPDEST SWAP4 SWAP3 POP POP POP JUMP JUMPDEST PUSH1 0x40 DUP1 MLOAD DUP1 DUP3 ADD SWAP1 SWAP2 MSTORE PUSH0 DUP1 DUP3 MSTORE PUSH1 0x20 DUP3 ADD MSTORE PUSH2 0xBF6 DUP4 DUP4 PUSH2 0x12D5 JUMP JUMPDEST PUSH2 0xC22 PUSH2 0xF66 JUMP JUMPDEST PUSH1 0x1 PUSH1 0x1 PUSH1 0xA0 SHL SUB DUP2 AND PUSH2 0xC4B JUMPI PUSH1 0x40 MLOAD PUSH4 0x1E4FBDF7 PUSH1 0xE0 SHL DUP2 MSTORE PUSH0 PUSH1 0x4 DUP3 ADD MSTORE PUSH1 0x24 ADD PUSH2 0x614 JUMP JUMPDEST PUSH2 0xC54 DUP2 PUSH2 0x10EF JUMP JUMPDEST POP JUMP JUMPDEST PUSH0 PUSH2 0xBF6 DUP3 DUP5 PUSH2 0x22C8 JUMP JUMPDEST PUSH0 PUSH2 0xBF6 DUP3 DUP5 PUSH2 0x22E7 JUMP JUMPDEST PUSH2 0xC7A DUP4 DUP4 DUP4 PUSH1 0x1 PUSH2 0x1309 JUMP JUMPDEST POP POP POP JUMP JUMPDEST PUSH1 0x1 PUSH1 0x1 PUSH1 0xA0 SHL SUB DUP4 DUP2 AND PUSH0 SWAP1 DUP2 MSTORE PUSH1 0x1 PUSH1 0x20 SWAP1 DUP2 MSTORE PUSH1 0x40 DUP1 DUP4 KECCAK256 SWAP4 DUP7 AND DUP4 MSTORE SWAP3 SWAP1 MSTORE KECCAK256 SLOAD PUSH0 NOT DUP2 EQ PUSH2 0xCF4 JUMPI DUP2 DUP2 LT ISZERO PUSH2 0xCE6 JUMPI PUSH1 0x40 MLOAD PUSH4 0x7DC7A0D9 PUSH1 0xE1 SHL DUP2 MSTORE PUSH1 0x1 PUSH1 0x1 PUSH1 0xA0 SHL SUB DUP5 AND PUSH1 0x4 DUP3 ADD MSTORE PUSH1 0x24 DUP2 ADD DUP3 SWAP1 MSTORE PUSH1 0x44 DUP2 ADD DUP4 SWAP1 MSTORE PUSH1 0x64 ADD PUSH2 0x614 JUMP JUMPDEST PUSH2 0xCF4 DUP5 DUP5 DUP5 DUP5 SUB PUSH0 PUSH2 0x1309 JUMP JUMPDEST POP POP POP POP JUMP JUMPDEST PUSH1 0x1 PUSH1 0x1 PUSH1 0xA0 SHL SUB DUP4 AND PUSH2 0xD23 JUMPI PUSH1 0x40 MLOAD PUSH4 0x4B637E8F PUSH1 0xE1 SHL DUP2 MSTORE PUSH0 PUSH1 0x4 DUP3 ADD MSTORE PUSH1 0x24 ADD PUSH2 0x614 JUMP JUMPDEST PUSH1 0x1 PUSH1 0x1 PUSH1 0xA0 SHL SUB DUP3 AND PUSH2 0xD4C JUMPI PUSH1 0x40 MLOAD PUSH4 0xEC442F05 PUSH1 0xE0 SHL DUP2 MSTORE PUSH0 PUSH1 0x4 DUP3 ADD MSTORE PUSH1 0x24 ADD PUSH2 0x614 JUMP JUMPDEST PUSH2 0xC7A DUP4 DUP4 DUP4 PUSH2 0x13DB JUMP JUMPDEST PUSH0 ADDRESS PUSH1 0x1 PUSH1 0x1 PUSH1 0xA0 SHL SUB PUSH32 0x0 AND EQ DUP1 ISZERO PUSH2 0xDAF JUMPI POP PUSH32 0x0 CHAINID EQ JUMPDEST ISZERO PUSH2 0xDD9 JUMPI POP PUSH32 0x0 SWAP1 JUMP JUMPDEST PUSH2 0x5CE PUSH1 0x40 DUP1 MLOAD PUSH32 0x8B73C3C69BB8FE3D512ECC4CF759CC79239F7B179B0FFACAA9A75D522B39400F PUSH1 0x20 DUP3 ADD MSTORE PUSH32 0x0 SWAP2 DUP2 ADD SWAP2 SWAP1 SWAP2 MSTORE PUSH32 0x0 PUSH1 0x60 DUP3 ADD MSTORE CHAINID PUSH1 0x80 DUP3 ADD MSTORE ADDRESS PUSH1 0xA0 DUP3 ADD MSTORE PUSH0 SWAP1 PUSH1 0xC0 ADD PUSH1 0x40 MLOAD PUSH1 0x20 DUP2 DUP4 SUB SUB DUP2 MSTORE SWAP1 PUSH1 0x40 MSTORE DUP1 MLOAD SWAP1 PUSH1 0x20 ADD KECCAK256 SWAP1 POP SWAP1 JUMP JUMPDEST PUSH0 PUSH6 0xFFFFFFFFFFFF DUP3 GT ISZERO PUSH2 0xEB2 JUMPI PUSH1 0x40 MLOAD PUSH4 0x6DFCC65 PUSH1 0xE4 SHL DUP2 MSTORE PUSH1 0x30 PUSH1 0x4 DUP3 ADD MSTORE PUSH1 0x24 DUP2 ADD DUP4 SWAP1 MSTORE PUSH1 0x44 ADD PUSH2 0x614 JUMP JUMPDEST POP SWAP1 JUMP JUMPDEST DUP2 SLOAD PUSH0 SWAP1 DUP2 DUP2 PUSH1 0x5 DUP2 GT ISZERO PUSH2 0xF12 JUMPI PUSH0 PUSH2 0xECF DUP5 PUSH2 0x13E6 JUMP JUMPDEST PUSH2 0xED9 SWAP1 DUP6 PUSH2 0x22B5 JUMP JUMPDEST PUSH0 DUP9 DUP2 MSTORE PUSH1 0x20 SWAP1 KECCAK256 SWAP1 SWAP2 POP DUP2 ADD SLOAD PUSH6 0xFFFFFFFFFFFF SWAP1 DUP2 AND SWAP1 DUP8 AND LT ISZERO PUSH2 0xF02 JUMPI DUP1 SWAP2 POP PUSH2 0xF10 JUMP JUMPDEST PUSH2 0xF0D DUP2 PUSH1 0x1 PUSH2 0x22A2 JUMP JUMPDEST SWAP3 POP JUMPDEST POP JUMPDEST PUSH0 PUSH2 0xF1F DUP8 DUP8 DUP6 DUP6 PUSH2 0x153E JUMP JUMPDEST SWAP1 POP DUP1 ISZERO PUSH2 0xF59 JUMPI PUSH2 0xF43 DUP8 PUSH2 0xF36 PUSH1 0x1 DUP5 PUSH2 0x22B5 JUMP JUMPDEST PUSH0 SWAP2 DUP3 MSTORE PUSH1 0x20 SWAP1 SWAP2 KECCAK256 ADD SWAP1 JUMP JUMPDEST SLOAD PUSH1 0x1 PUSH1 0x30 SHL SWAP1 DIV PUSH1 0x1 PUSH1 0x1 PUSH1 0xD0 SHL SUB AND PUSH2 0xF5B JUMP JUMPDEST PUSH0 JUMPDEST SWAP8 SWAP7 POP POP POP POP POP POP POP JUMP JUMPDEST PUSH1 0x5 SLOAD PUSH1 0x1 PUSH1 0x1 PUSH1 0xA0 SHL SUB PUSH2 0x100 SWAP1 SWAP2 DIV AND CALLER EQ PUSH2 0x667 JUMPI PUSH1 0x40 MLOAD PUSH4 0x118CDAA7 PUSH1 0xE0 SHL DUP2 MSTORE CALLER PUSH1 0x4 DUP3 ADD MSTORE PUSH1 0x24 ADD PUSH2 0x614 JUMP JUMPDEST PUSH2 0xFA1 PUSH2 0x159D JUMP JUMPDEST PUSH1 0x5 DUP1 SLOAD PUSH1 0xFF NOT AND SWAP1 SSTORE PUSH32 0x5DB9EE0A495BF2E6FF9C91A7834C1BA4FDD244A5E8AA4E537BD38AEAE4B073AA CALLER JUMPDEST PUSH1 0x40 MLOAD PUSH1 0x1 PUSH1 0x1 PUSH1 0xA0 SHL SUB SWAP1 SWAP2 AND DUP2 MSTORE PUSH1 0x20 ADD PUSH1 0x40 MLOAD DUP1 SWAP2 SUB SWAP1 LOG1 JUMP JUMPDEST PUSH1 0x1 PUSH1 0x1 PUSH1 0xA0 SHL SUB DUP3 AND PUSH2 0x1014 JUMPI PUSH1 0x40 MLOAD PUSH4 0xEC442F05 PUSH1 0xE0 SHL DUP2 MSTORE PUSH0 PUSH1 0x4 DUP3 ADD MSTORE PUSH1 0x24 ADD PUSH2 0x614 JUMP JUMPDEST PUSH2 0x67B PUSH0 DUP4 DUP4 PUSH2 0x13DB JUMP JUMPDEST PUSH0 PUSH2 0x5CE NUMBER PUSH2 0xE80 JUMP JUMPDEST PUSH1 0x1 PUSH1 0x1 PUSH1 0xA0 SHL SUB DUP3 DUP2 AND PUSH0 DUP2 DUP2 MSTORE PUSH1 0x9 PUSH1 0x20 MSTORE PUSH1 0x40 DUP1 DUP3 KECCAK256 DUP1 SLOAD DUP7 DUP7 AND PUSH1 0x1 PUSH1 0x1 PUSH1 0xA0 SHL SUB NOT DUP3 AND DUP2 OR SWAP1 SWAP3 SSTORE SWAP2 MLOAD SWAP2 SWAP1 SWAP5 AND SWAP4 SWAP3 DUP5 SWAP3 SWAP1 SWAP2 PUSH32 0x3134E8A2E6D97E929A7E54011EA5485D7D196DD5F0BA4D4EF95803E8E3FC257F SWAP2 SWAP1 LOG4 PUSH2 0xC7A DUP2 DUP4 PUSH2 0x1095 DUP7 PUSH2 0x15C0 JUMP JUMPDEST PUSH2 0x15DD JUMP JUMPDEST PUSH1 0x1 PUSH1 0x1 PUSH1 0xA0 SHL SUB DUP3 AND PUSH2 0x10C3 JUMPI PUSH1 0x40 MLOAD PUSH4 0x4B637E8F PUSH1 0xE1 SHL DUP2 MSTORE PUSH0 PUSH1 0x4 DUP3 ADD MSTORE PUSH1 0x24 ADD PUSH2 0x614 JUMP JUMPDEST PUSH2 0x67B DUP3 PUSH0 DUP4 PUSH2 0x13DB JUMP JUMPDEST PUSH1 0x1 PUSH1 0x1 PUSH1 0xA0 SHL SUB DUP2 AND PUSH0 SWAP1 DUP2 MSTORE PUSH1 0xA PUSH1 0x20 MSTORE PUSH1 0x40 DUP2 KECCAK256 SLOAD PUSH2 0x59C SWAP1 PUSH2 0x1746 JUMP JUMPDEST PUSH1 0x5 DUP1 SLOAD PUSH1 0x1 PUSH1 0x1 PUSH1 0xA0 SHL SUB DUP4 DUP2 AND PUSH2 0x100 DUP2 DUP2 MUL PUSH2 0x100 PUSH1 0x1 PUSH1 0xA8 SHL SUB NOT DUP6 AND OR SWAP1 SWAP5 SSTORE PUSH1 0x40 MLOAD SWAP4 SWAP1 SWAP3 DIV AND SWAP2 DUP3 SWAP1 PUSH32 0x8BE0079C531659141344CD1FD0A4F28419497F9722A3DAAFE3B4186F6B6457E0 SWAP1 PUSH0 SWAP1 LOG3 POP POP JUMP JUMPDEST PUSH1 0x1 PUSH1 0x1 PUSH1 0xA0 SHL SUB DUP2 AND PUSH0 SWAP1 DUP2 MSTORE PUSH1 0x8 PUSH1 0x20 MSTORE PUSH1 0x40 DUP2 KECCAK256 SLOAD PUSH2 0x59C JUMP JUMPDEST PUSH2 0x116D PUSH2 0x1776 JUMP JUMPDEST PUSH1 0x5 DUP1 SLOAD PUSH1 0xFF NOT AND PUSH1 0x1 OR SWAP1 SSTORE PUSH32 0x62E78CEA01BEE320CD4E420270B5EA74000D11B0C9F74754EBDBFC544B05A258 PUSH2 0xFCE CALLER SWAP1 JUMP JUMPDEST PUSH1 0x60 PUSH2 0x5CE PUSH32 0x0 PUSH1 0x6 PUSH2 0x179A JUMP JUMPDEST PUSH1 0x60 PUSH2 0x5CE PUSH32 0x0 PUSH1 0x7 PUSH2 0x179A JUMP JUMPDEST DUP1 SLOAD PUSH0 SWAP1 DUP1 ISZERO PUSH2 0xBF4 JUMPI PUSH2 0x1215 DUP4 PUSH2 0xF36 PUSH1 0x1 DUP5 PUSH2 0x22B5 JUMP JUMPDEST SLOAD PUSH1 0x1 PUSH1 0x30 SHL SWAP1 DIV PUSH1 0x1 PUSH1 0x1 PUSH1 0xD0 SHL SUB AND PUSH2 0xBF6 JUMP JUMPDEST PUSH0 PUSH2 0x59C PUSH2 0x1237 PUSH2 0xD57 JUMP JUMPDEST DUP4 PUSH1 0x40 MLOAD PUSH2 0x1901 PUSH1 0xF0 SHL DUP2 MSTORE PUSH1 0x2 DUP2 ADD SWAP3 SWAP1 SWAP3 MSTORE PUSH1 0x22 DUP3 ADD MSTORE PUSH1 0x42 SWAP1 KECCAK256 SWAP1 JUMP JUMPDEST PUSH0 PUSH0 PUSH0 PUSH0 PUSH2 0x1267 DUP9 DUP9 DUP9 DUP9 PUSH2 0x1843 JUMP JUMPDEST SWAP3 POP SWAP3 POP SWAP3 POP PUSH2 0x1277 DUP3 DUP3 PUSH2 0x190B JUMP JUMPDEST POP SWAP1 SWAP7 SWAP6 POP POP POP POP POP POP JUMP JUMPDEST PUSH1 0x1 PUSH1 0x1 PUSH1 0xA0 SHL SUB DUP3 AND PUSH0 SWAP1 DUP2 MSTORE PUSH1 0x8 PUSH1 0x20 MSTORE PUSH1 0x40 SWAP1 KECCAK256 DUP1 SLOAD PUSH1 0x1 DUP2 ADD SWAP1 SWAP2 SSTORE DUP2 DUP2 EQ PUSH2 0xC7A JUMPI PUSH1 0x40 MLOAD PUSH4 0x1D4B623 PUSH1 0xE6 SHL DUP2 MSTORE PUSH1 0x1 PUSH1 0x1 PUSH1 0xA0 SHL SUB DUP5 AND PUSH1 0x4 DUP3 ADD MSTORE PUSH1 0x24 DUP2 ADD DUP3 SWAP1 MSTORE PUSH1 0x44 ADD PUSH2 0x614 JUMP JUMPDEST PUSH1 0x40 DUP1 MLOAD DUP1 DUP3 ADD SWAP1 SWAP2 MSTORE PUSH0 DUP1 DUP3 MSTORE PUSH1 0x20 DUP3 ADD MSTORE PUSH1 0x1 PUSH1 0x1 PUSH1 0xA0 SHL SUB DUP4 AND PUSH0 SWAP1 DUP2 MSTORE PUSH1 0xA PUSH1 0x20 MSTORE PUSH1 0x40 SWAP1 KECCAK256 PUSH2 0xBF6 SWAP1 DUP4 PUSH2 0x19C3 JUMP JUMPDEST PUSH1 0x1 PUSH1 0x1 PUSH1 0xA0 SHL SUB DUP5 AND PUSH2 0x1332 JUMPI PUSH1 0x40 MLOAD PUSH4 0xE602DF05 PUSH1 0xE0 SHL DUP2 MSTORE PUSH0 PUSH1 0x4 DUP3 ADD MSTORE PUSH1 0x24 ADD PUSH2 0x614 JUMP JUMPDEST PUSH1 0x1 PUSH1 0x1 PUSH1 0xA0 SHL SUB DUP4 AND PUSH2 0x135B JUMPI PUSH1 0x40 MLOAD PUSH4 0x4A1406B1 PUSH1 0xE1 SHL DUP2 MSTORE PUSH0 PUSH1 0x4 DUP3 ADD MSTORE PUSH1 0x24 ADD PUSH2 0x614 JUMP JUMPDEST PUSH1 0x1 PUSH1 0x1 PUSH1 0xA0 SHL SUB DUP1 DUP6 AND PUSH0 SWAP1 DUP2 MSTORE PUSH1 0x1 PUSH1 0x20 SWAP1 DUP2 MSTORE PUSH1 0x40 DUP1 DUP4 KECCAK256 SWAP4 DUP8 AND DUP4 MSTORE SWAP3 SWAP1 MSTORE KECCAK256 DUP3 SWAP1 SSTORE DUP1 ISZERO PUSH2 0xCF4 JUMPI DUP3 PUSH1 0x1 PUSH1 0x1 PUSH1 0xA0 SHL SUB AND DUP5 PUSH1 0x1 PUSH1 0x1 PUSH1 0xA0 SHL SUB AND PUSH32 0x8C5BE1E5EBEC7D5BD14F71427D1E84F3DD0314C0F7B2291E5B200AC8C7C3B925 DUP5 PUSH1 0x40 MLOAD PUSH2 0x13CD SWAP2 DUP2 MSTORE PUSH1 0x20 ADD SWAP1 JUMP JUMPDEST PUSH1 0x40 MLOAD DUP1 SWAP2 SUB SWAP1 LOG3 POP POP POP POP JUMP JUMPDEST PUSH2 0xC7A DUP4 DUP4 DUP4 PUSH2 0x1A30 JUMP JUMPDEST PUSH0 PUSH1 0x1 DUP3 GT PUSH2 0x13F3 JUMPI POP SWAP1 JUMP JUMPDEST DUP2 PUSH1 0x1 PUSH1 0x1 PUSH1 0x80 SHL DUP3 LT PUSH2 0x140C JUMPI PUSH1 0x80 SWAP2 SWAP1 SWAP2 SHR SWAP1 PUSH1 0x40 SHL JUMPDEST PUSH9 0x10000000000000000 DUP3 LT PUSH2 0x1427 JUMPI PUSH1 0x40 SWAP2 SWAP1 SWAP2 SHR SWAP1 PUSH1 0x20 SHL JUMPDEST PUSH5 0x100000000 DUP3 LT PUSH2 0x143E JUMPI PUSH1 0x20 SWAP2 SWAP1 SWAP2 SHR SWAP1 PUSH1 0x10 SHL JUMPDEST PUSH3 0x10000 DUP3 LT PUSH2 0x1453 JUMPI PUSH1 0x10 SWAP2 SWAP1 SWAP2 SHR SWAP1 PUSH1 0x8 SHL JUMPDEST PUSH2 0x100 DUP3 LT PUSH2 0x1467 JUMPI PUSH1 0x8 SWAP2 SWAP1 SWAP2 SHR SWAP1 PUSH1 0x4 SHL JUMPDEST PUSH1 0x10 DUP3 LT PUSH2 0x147A JUMPI PUSH1 0x4 SWAP2 SWAP1 SWAP2 SHR SWAP1 PUSH1 0x2 SHL JUMPDEST PUSH1 0x4 DUP3 LT PUSH2 0x1486 JUMPI PUSH1 0x1 SHL JUMPDEST PUSH1 0x3 MUL PUSH1 0x1 SWAP1 DUP2 SHR SWAP1 DUP2 DUP6 DUP2 PUSH2 0x149E JUMPI PUSH2 0x149E PUSH2 0x2306 JUMP JUMPDEST DIV DUP3 ADD SWAP1 SHR SWAP1 POP PUSH1 0x1 DUP2 DUP6 DUP2 PUSH2 0x14B6 JUMPI PUSH2 0x14B6 PUSH2 0x2306 JUMP JUMPDEST DIV DUP3 ADD SWAP1 SHR SWAP1 POP PUSH1 0x1 DUP2 DUP6 DUP2 PUSH2 0x14CE JUMPI PUSH2 0x14CE PUSH2 0x2306 JUMP JUMPDEST DIV DUP3 ADD SWAP1 SHR SWAP1 POP PUSH1 0x1 DUP2 DUP6 DUP2 PUSH2 0x14E6 JUMPI PUSH2 0x14E6 PUSH2 0x2306 JUMP JUMPDEST DIV DUP3 ADD SWAP1 SHR SWAP1 POP PUSH1 0x1 DUP2 DUP6 DUP2 PUSH2 0x14FE JUMPI PUSH2 0x14FE PUSH2 0x2306 JUMP JUMPDEST DIV DUP3 ADD SWAP1 SHR SWAP1 POP PUSH1 0x1 DUP2 DUP6 DUP2 PUSH2 0x1516 JUMPI PUSH2 0x1516 PUSH2 0x2306 JUMP JUMPDEST DIV DUP3 ADD SWAP1 SHR SWAP1 POP PUSH2 0x1535 DUP2 DUP6 DUP2 PUSH2 0x152F JUMPI PUSH2 0x152F PUSH2 0x2306 JUMP JUMPDEST DIV DUP3 GT SWAP1 JUMP JUMPDEST SWAP1 SUB SWAP4 SWAP3 POP POP POP JUMP JUMPDEST PUSH0 JUMPDEST DUP2 DUP4 LT ISZERO PUSH2 0x1595 JUMPI PUSH0 PUSH2 0x1553 DUP5 DUP5 PUSH2 0x1A96 JUMP JUMPDEST PUSH0 DUP8 DUP2 MSTORE PUSH1 0x20 SWAP1 KECCAK256 SWAP1 SWAP2 POP PUSH6 0xFFFFFFFFFFFF DUP7 AND SWAP1 DUP3 ADD SLOAD PUSH6 0xFFFFFFFFFFFF AND GT ISZERO PUSH2 0x1581 JUMPI DUP1 SWAP3 POP PUSH2 0x158F JUMP JUMPDEST PUSH2 0x158C DUP2 PUSH1 0x1 PUSH2 0x22A2 JUMP JUMPDEST SWAP4 POP JUMPDEST POP PUSH2 0x1540 JUMP JUMPDEST POP SWAP4 SWAP3 POP POP POP JUMP JUMPDEST PUSH1 0x5 SLOAD PUSH1 0xFF AND PUSH2 0x667 JUMPI PUSH1 0x40 MLOAD PUSH4 0x8DFC202B PUSH1 0xE0 SHL DUP2 MSTORE PUSH1 0x4 ADD PUSH1 0x40 MLOAD DUP1 SWAP2 SUB SWAP1 REVERT JUMPDEST PUSH1 0x1 PUSH1 0x1 PUSH1 0xA0 SHL SUB DUP2 AND PUSH0 SWAP1 DUP2 MSTORE PUSH1 0x20 DUP2 SWAP1 MSTORE PUSH1 0x40 DUP2 KECCAK256 SLOAD PUSH2 0x59C JUMP JUMPDEST DUP2 PUSH1 0x1 PUSH1 0x1 PUSH1 0xA0 SHL SUB AND DUP4 PUSH1 0x1 PUSH1 0x1 PUSH1 0xA0 SHL SUB AND EQ ISZERO DUP1 ISZERO PUSH2 0x15FE JUMPI POP PUSH0 DUP2 GT JUMPDEST ISZERO PUSH2 0xC7A JUMPI PUSH1 0x1 PUSH1 0x1 PUSH1 0xA0 SHL SUB DUP4 AND ISZERO PUSH2 0x16A5 JUMPI PUSH1 0x1 PUSH1 0x1 PUSH1 0xA0 SHL SUB DUP4 AND PUSH0 SWAP1 DUP2 MSTORE PUSH1 0xA PUSH1 0x20 MSTORE PUSH1 0x40 DUP2 KECCAK256 DUP2 SWAP1 PUSH2 0x1640 SWAP1 PUSH2 0xC62 PUSH2 0x163B DUP7 PUSH2 0x1AB0 JUMP JUMPDEST PUSH2 0x1AE3 JUMP JUMPDEST PUSH1 0x1 PUSH1 0x1 PUSH1 0xD0 SHL SUB AND SWAP2 POP PUSH1 0x1 PUSH1 0x1 PUSH1 0xD0 SHL SUB AND SWAP2 POP DUP5 PUSH1 0x1 PUSH1 0x1 PUSH1 0xA0 SHL SUB AND PUSH32 0xDEC2BACDD2F05B59DE34DA9B523DFF8BE42E5E38E818C82FDB0BAE774387A724 DUP4 DUP4 PUSH1 0x40 MLOAD PUSH2 0x169A SWAP3 SWAP2 SWAP1 SWAP2 DUP3 MSTORE PUSH1 0x20 DUP3 ADD MSTORE PUSH1 0x40 ADD SWAP1 JUMP JUMPDEST PUSH1 0x40 MLOAD DUP1 SWAP2 SUB SWAP1 LOG2 POP POP JUMPDEST PUSH1 0x1 PUSH1 0x1 PUSH1 0xA0 SHL SUB DUP3 AND ISZERO PUSH2 0xC7A JUMPI PUSH1 0x1 PUSH1 0x1 PUSH1 0xA0 SHL SUB DUP3 AND PUSH0 SWAP1 DUP2 MSTORE PUSH1 0xA PUSH1 0x20 MSTORE PUSH1 0x40 DUP2 KECCAK256 DUP2 SWAP1 PUSH2 0x16DD SWAP1 PUSH2 0xC57 PUSH2 0x163B DUP7 PUSH2 0x1AB0 JUMP JUMPDEST PUSH1 0x1 PUSH1 0x1 PUSH1 0xD0 SHL SUB AND SWAP2 POP PUSH1 0x1 PUSH1 0x1 PUSH1 0xD0 SHL SUB AND SWAP2 POP DUP4 PUSH1 0x1 PUSH1 0x1 PUSH1 0xA0 SHL SUB AND PUSH32 0xDEC2BACDD2F05B59DE34DA9B523DFF8BE42E5E38E818C82FDB0BAE774387A724 DUP4 DUP4 PUSH1 0x40 MLOAD PUSH2 0x1737 SWAP3 SWAP2 SWAP1 SWAP2 DUP3 MSTORE PUSH1 0x20 DUP3 ADD MSTORE PUSH1 0x40 ADD SWAP1 JUMP JUMPDEST PUSH1 0x40 MLOAD DUP1 SWAP2 SUB SWAP1 LOG2 POP POP POP POP POP JUMP JUMPDEST PUSH0 PUSH4 0xFFFFFFFF DUP3 GT ISZERO PUSH2 0xEB2 JUMPI PUSH1 0x40 MLOAD PUSH4 0x6DFCC65 PUSH1 0xE4 SHL DUP2 MSTORE PUSH1 0x20 PUSH1 0x4 DUP3 ADD MSTORE PUSH1 0x24 DUP2 ADD DUP4 SWAP1 MSTORE PUSH1 0x44 ADD PUSH2 0x614 JUMP JUMPDEST PUSH1 0x5 SLOAD PUSH1 0xFF AND ISZERO PUSH2 0x667 JUMPI PUSH1 0x40 MLOAD PUSH4 0xD93C0665 PUSH1 0xE0 SHL DUP2 MSTORE PUSH1 0x4 ADD PUSH1 0x40 MLOAD DUP1 SWAP2 SUB SWAP1 REVERT JUMPDEST PUSH1 0x60 PUSH1 0xFF DUP4 EQ PUSH2 0x17B4 JUMPI PUSH2 0x17AD DUP4 PUSH2 0x1B1B JUMP JUMPDEST SWAP1 POP PUSH2 0x59C JUMP JUMPDEST DUP2 DUP1 SLOAD PUSH2 0x17C0 SWAP1 PUSH2 0x21E7 JUMP JUMPDEST DUP1 PUSH1 0x1F ADD PUSH1 0x20 DUP1 SWAP2 DIV MUL PUSH1 0x20 ADD PUSH1 0x40 MLOAD SWAP1 DUP2 ADD PUSH1 0x40 MSTORE DUP1 SWAP3 SWAP2 SWAP1 DUP2 DUP2 MSTORE PUSH1 0x20 ADD DUP3 DUP1 SLOAD PUSH2 0x17EC SWAP1 PUSH2 0x21E7 JUMP JUMPDEST DUP1 ISZERO PUSH2 0x1837 JUMPI DUP1 PUSH1 0x1F LT PUSH2 0x180E JUMPI PUSH2 0x100 DUP1 DUP4 SLOAD DIV MUL DUP4 MSTORE SWAP2 PUSH1 0x20 ADD SWAP2 PUSH2 0x1837 JUMP JUMPDEST DUP3 ADD SWAP2 SWAP1 PUSH0 MSTORE PUSH1 0x20 PUSH0 KECCAK256 SWAP1 JUMPDEST DUP2 SLOAD DUP2 MSTORE SWAP1 PUSH1 0x1 ADD SWAP1 PUSH1 0x20 ADD DUP1 DUP4 GT PUSH2 0x181A JUMPI DUP3 SWAP1 SUB PUSH1 0x1F AND DUP3 ADD SWAP2 JUMPDEST POP POP POP POP POP SWAP1 POP PUSH2 0x59C JUMP JUMPDEST PUSH0 DUP1 DUP1 PUSH32 0x7FFFFFFFFFFFFFFFFFFFFFFFFFFFFFFF5D576E7357A4501DDFE92F46681B20A0 DUP5 GT ISZERO PUSH2 0x187C JUMPI POP PUSH0 SWAP2 POP PUSH1 0x3 SWAP1 POP DUP3 PUSH2 0x1901 JUMP JUMPDEST PUSH1 0x40 DUP1 MLOAD PUSH0 DUP1 DUP3 MSTORE PUSH1 0x20 DUP3 ADD DUP1 DUP5 MSTORE DUP11 SWAP1 MSTORE PUSH1 0xFF DUP10 AND SWAP3 DUP3 ADD SWAP3 SWAP1 SWAP3 MSTORE PUSH1 0x60 DUP2 ADD DUP8 SWAP1 MSTORE PUSH1 0x80 DUP2 ADD DUP7 SWAP1 MSTORE PUSH1 0x1 SWAP1 PUSH1 0xA0 ADD PUSH1 0x20 PUSH1 0x40 MLOAD PUSH1 0x20 DUP2 SUB SWAP1 DUP1 DUP5 SUB SWAP1 DUP6 GAS STATICCALL ISZERO DUP1 ISZERO PUSH2 0x18CD JUMPI RETURNDATASIZE PUSH0 PUSH0 RETURNDATACOPY RETURNDATASIZE PUSH0 REVERT JUMPDEST POP POP PUSH1 0x40 MLOAD PUSH1 0x1F NOT ADD MLOAD SWAP2 POP POP PUSH1 0x1 PUSH1 0x1 PUSH1 0xA0 SHL SUB DUP2 AND PUSH2 0x18F8 JUMPI POP PUSH0 SWAP3 POP PUSH1 0x1 SWAP2 POP DUP3 SWAP1 POP PUSH2 0x1901 JUMP JUMPDEST SWAP3 POP PUSH0 SWAP2 POP DUP2 SWAP1 POP JUMPDEST SWAP5 POP SWAP5 POP SWAP5 SWAP2 POP POP JUMP JUMPDEST PUSH0 DUP3 PUSH1 0x3 DUP2 GT ISZERO PUSH2 0x191E JUMPI PUSH2 0x191E PUSH2 0x231A JUMP JUMPDEST SUB PUSH2 0x1927 JUMPI POP POP JUMP JUMPDEST PUSH1 0x1 DUP3 PUSH1 0x3 DUP2 GT ISZERO PUSH2 0x193B JUMPI PUSH2 0x193B PUSH2 0x231A JUMP JUMPDEST SUB PUSH2 0x1959 JUMPI PUSH1 0x40 MLOAD PUSH4 0xF645EEDF PUSH1 0xE0 SHL DUP2 MSTORE PUSH1 0x4 ADD PUSH1 0x40 MLOAD DUP1 SWAP2 SUB SWAP1 REVERT JUMPDEST PUSH1 0x2 DUP3 PUSH1 0x3 DUP2 GT ISZERO PUSH2 0x196D JUMPI PUSH2 0x196D PUSH2 0x231A JUMP JUMPDEST SUB PUSH2 0x198E JUMPI PUSH1 0x40 MLOAD PUSH4 0xFCE698F7 PUSH1 0xE0 SHL DUP2 MSTORE PUSH1 0x4 DUP2 ADD DUP3 SWAP1 MSTORE PUSH1 0x24 ADD PUSH2 0x614 JUMP JUMPDEST PUSH1 0x3 DUP3 PUSH1 0x3 DUP2 GT ISZERO PUSH2 0x19A2 JUMPI PUSH2 0x19A2 PUSH2 0x231A JUMP JUMPDEST SUB PUSH2 0x67B JUMPI PUSH1 0x40 MLOAD PUSH4 0x35E2F383 PUSH1 0xE2 SHL DUP2 MSTORE PUSH1 0x4 DUP2 ADD DUP3 SWAP1 MSTORE PUSH1 0x24 ADD PUSH2 0x614 JUMP JUMPDEST PUSH1 0x40 DUP1 MLOAD DUP1 DUP3 ADD SWAP1 SWAP2 MSTORE PUSH0 DUP1 DUP3 MSTORE PUSH1 0x20 DUP3 ADD MSTORE DUP3 PUSH0 ADD DUP3 PUSH4 0xFFFFFFFF AND DUP2 SLOAD DUP2 LT PUSH2 0x19F0 JUMPI PUSH2 0x19F0 PUSH2 0x232E JUMP JUMPDEST PUSH0 SWAP2 DUP3 MSTORE PUSH1 0x20 SWAP2 DUP3 SWAP1 KECCAK256 PUSH1 0x40 DUP1 MLOAD DUP1 DUP3 ADD SWAP1 SWAP2 MSTORE SWAP2 ADD SLOAD PUSH6 0xFFFFFFFFFFFF DUP2 AND DUP3 MSTORE PUSH1 0x1 PUSH1 0x30 SHL SWAP1 DIV PUSH1 0x1 PUSH1 0x1 PUSH1 0xD0 SHL SUB AND SWAP2 DUP2 ADD SWAP2 SWAP1 SWAP2 MSTORE SWAP4 SWAP3 POP POP POP JUMP JUMPDEST PUSH2 0x1A3B DUP4 DUP4 DUP4 PUSH2 0x1B58 JUMP JUMPDEST PUSH1 0x1 PUSH1 0x1 PUSH1 0xA0 SHL SUB DUP4 AND PUSH2 0x1A8B JUMPI PUSH0 PUSH2 0x1A53 PUSH1 0x2 SLOAD SWAP1 JUMP JUMPDEST SWAP1 POP PUSH1 0x1 PUSH1 0x1 PUSH1 0xD0 SHL SUB DUP1 DUP3 GT ISZERO PUSH2 0x1A88 JUMPI PUSH1 0x40 MLOAD PUSH4 0xE58AE93 PUSH1 0xE1 SHL DUP2 MSTORE PUSH1 0x4 DUP2 ADD DUP4 SWAP1 MSTORE PUSH1 0x24 DUP2 ADD DUP3 SWAP1 MSTORE PUSH1 0x44 ADD PUSH2 0x614 JUMP JUMPDEST POP POP JUMPDEST PUSH2 0xC7A DUP4 DUP4 DUP4 PUSH2 0x1B6B JUMP JUMPDEST PUSH0 PUSH2 0x1AA4 PUSH1 0x2 DUP5 DUP5 XOR PUSH2 0x2342 JUMP JUMPDEST PUSH2 0xBF6 SWAP1 DUP5 DUP5 AND PUSH2 0x22A2 JUMP JUMPDEST PUSH0 PUSH1 0x1 PUSH1 0x1 PUSH1 0xD0 SHL SUB DUP3 GT ISZERO PUSH2 0xEB2 JUMPI PUSH1 0x40 MLOAD PUSH4 0x6DFCC65 PUSH1 0xE4 SHL DUP2 MSTORE PUSH1 0xD0 PUSH1 0x4 DUP3 ADD MSTORE PUSH1 0x24 DUP2 ADD DUP4 SWAP1 MSTORE PUSH1 0x44 ADD PUSH2 0x614 JUMP JUMPDEST PUSH0 PUSH0 PUSH2 0x1B0E PUSH2 0x1AF0 PUSH2 0x979 JUMP JUMPDEST PUSH2 0x1B06 PUSH2 0x1AFC DUP9 PUSH2 0x11FC JUMP JUMPDEST DUP7 DUP9 PUSH4 0xFFFFFFFF AND JUMP JUMPDEST DUP8 SWAP2 SWAP1 PUSH2 0x1BE0 JUMP JUMPDEST SWAP2 POP SWAP2 POP JUMPDEST SWAP4 POP SWAP4 SWAP2 POP POP JUMP JUMPDEST PUSH1 0x60 PUSH0 PUSH2 0x1B27 DUP4 PUSH2 0x1BED JUMP JUMPDEST PUSH1 0x40 DUP1 MLOAD PUSH1 0x20 DUP1 DUP3 MSTORE DUP2 DUP4 ADD SWAP1 SWAP3 MSTORE SWAP2 SWAP3 POP PUSH0 SWAP2 SWAP1 PUSH1 0x20 DUP3 ADD DUP2 DUP1 CALLDATASIZE DUP4 CALLDATACOPY POP POP POP SWAP2 DUP3 MSTORE POP PUSH1 0x20 DUP2 ADD SWAP3 SWAP1 SWAP3 MSTORE POP SWAP1 JUMP JUMPDEST PUSH2 0x1B60 PUSH2 0x1776 JUMP JUMPDEST PUSH2 0xC7A DUP4 DUP4 DUP4 PUSH2 0x1C14 JUMP JUMPDEST PUSH1 0x1 PUSH1 0x1 PUSH1 0xA0 SHL SUB DUP4 AND PUSH2 0x1B8D JUMPI PUSH2 0x1B8A PUSH1 0xB PUSH2 0xC57 PUSH2 0x163B DUP5 PUSH2 0x1AB0 JUMP JUMPDEST POP POP JUMPDEST PUSH1 0x1 PUSH1 0x1 PUSH1 0xA0 SHL SUB DUP3 AND PUSH2 0x1BAF JUMPI PUSH2 0x1BAC PUSH1 0xB PUSH2 0xC62 PUSH2 0x163B DUP5 PUSH2 0x1AB0 JUMP JUMPDEST POP POP JUMPDEST PUSH1 0x1 PUSH1 0x1 PUSH1 0xA0 SHL SUB DUP4 DUP2 AND PUSH0 SWAP1 DUP2 MSTORE PUSH1 0x9 PUSH1 0x20 MSTORE PUSH1 0x40 DUP1 DUP3 KECCAK256 SLOAD DUP6 DUP5 AND DUP4 MSTORE SWAP2 KECCAK256 SLOAD PUSH2 0xC7A SWAP3 SWAP2 DUP3 AND SWAP2 AND DUP4 PUSH2 0x15DD JUMP JUMPDEST PUSH0 DUP1 PUSH2 0x1B0E DUP6 DUP6 DUP6 PUSH2 0x1D3A JUMP JUMPDEST PUSH0 PUSH1 0xFF DUP3 AND PUSH1 0x1F DUP2 GT ISZERO PUSH2 0x59C JUMPI PUSH1 0x40 MLOAD PUSH4 0x2CD44AC3 PUSH1 0xE2 SHL DUP2 MSTORE PUSH1 0x4 ADD PUSH1 0x40 MLOAD DUP1 SWAP2 SUB SWAP1 REVERT JUMPDEST PUSH1 0x1 PUSH1 0x1 PUSH1 0xA0 SHL SUB DUP4 AND PUSH2 0x1C3E JUMPI DUP1 PUSH1 0x2 PUSH0 DUP3 DUP3 SLOAD PUSH2 0x1C33 SWAP2 SWAP1 PUSH2 0x22A2 JUMP JUMPDEST SWAP1 SWAP2 SSTORE POP PUSH2 0x1CAE SWAP1 POP JUMP JUMPDEST PUSH1 0x1 PUSH1 0x1 PUSH1 0xA0 SHL SUB DUP4 AND PUSH0 SWAP1 DUP2 MSTORE PUSH1 0x20 DUP2 SWAP1 MSTORE PUSH1 0x40 SWAP1 KECCAK256 SLOAD DUP2 DUP2 LT ISZERO PUSH2 0x1C90 JUMPI PUSH1 0x40 MLOAD PUSH4 0x391434E3 PUSH1 0xE2 SHL DUP2 MSTORE PUSH1 0x1 PUSH1 0x1 PUSH1 0xA0 SHL SUB DUP6 AND PUSH1 0x4 DUP3 ADD MSTORE PUSH1 0x24 DUP2 ADD DUP3 SWAP1 MSTORE PUSH1 0x44 DUP2 ADD DUP4 SWAP1 MSTORE PUSH1 0x64 ADD PUSH2 0x614 JUMP JUMPDEST PUSH1 0x1 PUSH1 0x1 PUSH1 0xA0 SHL SUB DUP5 AND PUSH0 SWAP1 DUP2 MSTORE PUSH1 0x20 DUP2 SWAP1 MSTORE PUSH1 0x40 SWAP1 KECCAK256 SWAP1 DUP3 SWAP1 SUB SWAP1 SSTORE JUMPDEST PUSH1 0x1 PUSH1 0x1 PUSH1 0xA0 SHL SUB DUP3 AND PUSH2 0x1CCA JUMPI PUSH1 0x2 DUP1 SLOAD DUP3 SWAP1 SUB SWAP1 SSTORE PUSH2 0x1CE8 JUMP JUMPDEST PUSH1 0x1 PUSH1 0x1 PUSH1 0xA0 SHL SUB DUP3 AND PUSH0 SWAP1 DUP2 MSTORE PUSH1 0x20 DUP2 SWAP1 MSTORE PUSH1 0x40 SWAP1 KECCAK256 DUP1 SLOAD DUP3 ADD SWAP1 SSTORE JUMPDEST DUP2 PUSH1 0x1 PUSH1 0x1 PUSH1 0xA0 SHL SUB AND DUP4 PUSH1 0x1 PUSH1 0x1 PUSH1 0xA0 SHL SUB AND PUSH32 0xDDF252AD1BE2C89B69C2B068FC378DAA952BA7F163C4A11628F55A4DF523B3EF DUP4 PUSH1 0x40 MLOAD PUSH2 0x1D2D SWAP2 DUP2 MSTORE PUSH1 0x20 ADD SWAP1 JUMP JUMPDEST PUSH1 0x40 MLOAD DUP1 SWAP2 SUB SWAP1 LOG3 POP POP POP JUMP JUMPDEST DUP3 SLOAD PUSH0 SWAP1 DUP2 SWAP1 DUP1 ISZERO PUSH2 0x1E30 JUMPI PUSH0 PUSH2 0x1D56 DUP8 PUSH2 0xF36 PUSH1 0x1 DUP6 PUSH2 0x22B5 JUMP JUMPDEST DUP1 SLOAD SWAP1 SWAP2 POP PUSH6 0xFFFFFFFFFFFF DUP1 DUP3 AND SWAP2 PUSH1 0x1 PUSH1 0x30 SHL SWAP1 DIV PUSH1 0x1 PUSH1 0x1 PUSH1 0xD0 SHL SUB AND SWAP1 DUP9 AND DUP3 GT ISZERO PUSH2 0x1D99 JUMPI PUSH1 0x40 MLOAD PUSH4 0x2520601D PUSH1 0xE0 SHL DUP2 MSTORE PUSH1 0x4 ADD PUSH1 0x40 MLOAD DUP1 SWAP2 SUB SWAP1 REVERT JUMPDEST DUP8 PUSH6 0xFFFFFFFFFFFF AND DUP3 PUSH6 0xFFFFFFFFFFFF AND SUB PUSH2 0x1DD2 JUMPI DUP3 SLOAD PUSH6 0xFFFFFFFFFFFF AND PUSH1 0x1 PUSH1 0x30 SHL PUSH1 0x1 PUSH1 0x1 PUSH1 0xD0 SHL SUB DUP10 AND MUL OR DUP4 SSTORE PUSH2 0x1E22 JUMP JUMPDEST PUSH1 0x40 DUP1 MLOAD DUP1 DUP3 ADD SWAP1 SWAP2 MSTORE PUSH6 0xFFFFFFFFFFFF DUP1 DUP11 AND DUP3 MSTORE PUSH1 0x1 PUSH1 0x1 PUSH1 0xD0 SHL SUB DUP1 DUP11 AND PUSH1 0x20 DUP1 DUP6 ADD SWAP2 DUP3 MSTORE DUP14 SLOAD PUSH1 0x1 DUP2 ADD DUP16 SSTORE PUSH0 DUP16 DUP2 MSTORE SWAP2 SWAP1 SWAP2 KECCAK256 SWAP5 MLOAD SWAP2 MLOAD SWAP1 SWAP3 AND PUSH1 0x1 PUSH1 0x30 SHL MUL SWAP3 AND SWAP2 SWAP1 SWAP2 OR SWAP2 ADD SSTORE JUMPDEST SWAP5 POP DUP6 SWAP4 POP PUSH2 0x1B13 SWAP3 POP POP POP JUMP JUMPDEST POP POP PUSH1 0x40 DUP1 MLOAD DUP1 DUP3 ADD SWAP1 SWAP2 MSTORE PUSH6 0xFFFFFFFFFFFF DUP1 DUP6 AND DUP3 MSTORE PUSH1 0x1 PUSH1 0x1 PUSH1 0xD0 SHL SUB DUP1 DUP6 AND PUSH1 0x20 DUP1 DUP6 ADD SWAP2 DUP3 MSTORE DUP9 SLOAD PUSH1 0x1 DUP2 ADD DUP11 SSTORE PUSH0 DUP11 DUP2 MSTORE SWAP2 DUP3 KECCAK256 SWAP6 MLOAD SWAP3 MLOAD SWAP1 SWAP4 AND PUSH1 0x1 PUSH1 0x30 SHL MUL SWAP2 SWAP1 SWAP4 AND OR SWAP3 ADD SWAP2 SWAP1 SWAP2 SSTORE SWAP1 POP DUP2 PUSH2 0x1B13 JUMP JUMPDEST PUSH0 DUP2 MLOAD DUP1 DUP5 MSTORE DUP1 PUSH1 0x20 DUP5 ADD PUSH1 0x20 DUP7 ADD MCOPY PUSH0 PUSH1 0x20 DUP3 DUP7 ADD ADD MSTORE PUSH1 0x20 PUSH1 0x1F NOT PUSH1 0x1F DUP4 ADD AND DUP6 ADD ADD SWAP2 POP POP SWAP3 SWAP2 POP POP JUMP JUMPDEST PUSH1 0x20 DUP2 MSTORE PUSH0 PUSH2 0xBF6 PUSH1 0x20 DUP4 ADD DUP5 PUSH2 0x1E8A JUMP JUMPDEST PUSH1 0x1 PUSH1 0x1 PUSH1 0xA0 SHL SUB DUP2 AND DUP2 EQ PUSH2 0xC54 JUMPI PUSH0 PUSH0 REVERT JUMPDEST PUSH0 PUSH0 PUSH1 0x40 DUP4 DUP6 SUB SLT ISZERO PUSH2 0x1EEF JUMPI PUSH0 PUSH0 REVERT JUMPDEST DUP3 CALLDATALOAD PUSH2 0x1EFA DUP2 PUSH2 0x1ECA JUMP JUMPDEST SWAP5 PUSH1 0x20 SWAP4 SWAP1 SWAP4 ADD CALLDATALOAD SWAP4 POP POP POP JUMP JUMPDEST PUSH0 PUSH0 PUSH0 PUSH1 0x60 DUP5 DUP7 SUB SLT ISZERO PUSH2 0x1F1A JUMPI PUSH0 PUSH0 REVERT JUMPDEST DUP4 CALLDATALOAD PUSH2 0x1F25 DUP2 PUSH2 0x1ECA JUMP JUMPDEST SWAP3 POP PUSH1 0x20 DUP5 ADD CALLDATALOAD PUSH2 0x1F35 DUP2 PUSH2 0x1ECA JUMP JUMPDEST SWAP3 SWAP6 SWAP3 SWAP5 POP POP POP PUSH1 0x40 SWAP2 SWAP1 SWAP2 ADD CALLDATALOAD SWAP1 JUMP JUMPDEST PUSH0 PUSH1 0x20 DUP3 DUP5 SUB SLT ISZERO PUSH2 0x1F56 JUMPI PUSH0 PUSH0 REVERT JUMPDEST DUP2 CALLDATALOAD PUSH2 0xBF6 DUP2 PUSH2 0x1ECA JUMP JUMPDEST PUSH0 PUSH0 PUSH0 PUSH0 PUSH0 PUSH1 0x80 DUP7 DUP9 SUB SLT ISZERO PUSH2 0x1F75 JUMPI PUSH0 PUSH0 REVERT JUMPDEST DUP6 CALLDATALOAD PUSH2 0x1F80 DUP2 PUSH2 0x1ECA JUMP JUMPDEST SWAP5 POP PUSH1 0x20 DUP7 ADD CALLDATALOAD PUSH2 0x1F90 DUP2 PUSH2 0x1ECA JUMP JUMPDEST SWAP4 POP PUSH1 0x40 DUP7 ADD CALLDATALOAD SWAP3 POP PUSH1 0x60 DUP7 ADD CALLDATALOAD PUSH8 0xFFFFFFFFFFFFFFFF DUP2 GT ISZERO PUSH2 0x1FB2 JUMPI PUSH0 PUSH0 REVERT JUMPDEST DUP7 ADD PUSH1 0x1F DUP2 ADD DUP9 SGT PUSH2 0x1FC2 JUMPI PUSH0 PUSH0 REVERT JUMPDEST DUP1 CALLDATALOAD PUSH8 0xFFFFFFFFFFFFFFFF DUP2 GT ISZERO PUSH2 0x1FD8 JUMPI PUSH0 PUSH0 REVERT JUMPDEST DUP9 PUSH1 0x20 DUP3 DUP5 ADD ADD GT ISZERO PUSH2 0x1FE9 JUMPI PUSH0 PUSH0 REVERT JUMPDEST SWAP6 SWAP9 SWAP5 SWAP8 POP SWAP3 SWAP6 POP POP POP PUSH1 0x20 ADD SWAP2 SWAP1 JUMP JUMPDEST PUSH1 0xFF PUSH1 0xF8 SHL DUP9 AND DUP2 MSTORE PUSH1 0xE0 PUSH1 0x20 DUP3 ADD MSTORE PUSH0 PUSH2 0x2018 PUSH1 0xE0 DUP4 ADD DUP10 PUSH2 0x1E8A JUMP JUMPDEST DUP3 DUP2 SUB PUSH1 0x40 DUP5 ADD MSTORE PUSH2 0x202A DUP2 DUP10 PUSH2 0x1E8A JUMP JUMPDEST PUSH1 0x60 DUP5 ADD DUP9 SWAP1 MSTORE PUSH1 0x1 PUSH1 0x1 PUSH1 0xA0 SHL SUB DUP8 AND PUSH1 0x80 DUP6 ADD MSTORE PUSH1 0xA0 DUP5 ADD DUP7 SWAP1 MSTORE DUP4 DUP2 SUB PUSH1 0xC0 DUP6 ADD MSTORE DUP5 MLOAD DUP1 DUP3 MSTORE PUSH1 0x20 DUP1 DUP8 ADD SWAP4 POP SWAP1 SWAP2 ADD SWAP1 PUSH0 JUMPDEST DUP2 DUP2 LT ISZERO PUSH2 0x207F JUMPI DUP4 MLOAD DUP4 MSTORE PUSH1 0x20 SWAP4 DUP5 ADD SWAP4 SWAP1 SWAP3 ADD SWAP2 PUSH1 0x1 ADD PUSH2 0x2061 JUMP JUMPDEST POP SWAP1 SWAP12 SWAP11 POP POP POP POP POP POP POP POP POP POP POP JUMP JUMPDEST PUSH0 PUSH1 0x20 DUP3 DUP5 SUB SLT ISZERO PUSH2 0x20A0 JUMPI PUSH0 PUSH0 REVERT JUMPDEST POP CALLDATALOAD SWAP2 SWAP1 POP JUMP JUMPDEST DUP1 CALLDATALOAD PUSH1 0xFF DUP2 AND DUP2 EQ PUSH2 0x20B7 JUMPI PUSH0 PUSH0 REVERT JUMPDEST SWAP2 SWAP1 POP JUMP JUMPDEST PUSH0 PUSH0 PUSH0 PUSH0 PUSH0 PUSH0 PUSH1 0xC0 DUP8 DUP10 SUB SLT ISZERO PUSH2 0x20D1 JUMPI PUSH0 PUSH0 REVERT JUMPDEST DUP7 CALLDATALOAD PUSH2 0x20DC DUP2 PUSH2 0x1ECA JUMP JUMPDEST SWAP6 POP PUSH1 0x20 DUP8 ADD CALLDATALOAD SWAP5 POP PUSH1 0x40 DUP8 ADD CALLDATALOAD SWAP4 POP PUSH2 0x20F8 PUSH1 0x60 DUP9 ADD PUSH2 0x20A7 JUMP JUMPDEST SWAP6 SWAP9 SWAP5 SWAP8 POP SWAP3 SWAP6 PUSH1 0x80 DUP2 ADD CALLDATALOAD SWAP5 PUSH1 0xA0 SWAP1 SWAP2 ADD CALLDATALOAD SWAP4 POP SWAP2 POP POP JUMP JUMPDEST PUSH0 PUSH0 PUSH0 PUSH0 PUSH0 PUSH0 PUSH0 PUSH1 0xE0 DUP9 DUP11 SUB SLT ISZERO PUSH2 0x2128 JUMPI PUSH0 PUSH0 REVERT JUMPDEST DUP8 CALLDATALOAD PUSH2 0x2133 DUP2 PUSH2 0x1ECA JUMP JUMPDEST SWAP7 POP PUSH1 0x20 DUP9 ADD CALLDATALOAD PUSH2 0x2143 DUP2 PUSH2 0x1ECA JUMP JUMPDEST SWAP6 POP PUSH1 0x40 DUP9 ADD CALLDATALOAD SWAP5 POP PUSH1 0x60 DUP9 ADD CALLDATALOAD SWAP4 POP PUSH2 0x215F PUSH1 0x80 DUP10 ADD PUSH2 0x20A7 JUMP JUMPDEST SWAP7 SWAP10 SWAP6 SWAP9 POP SWAP4 SWAP7 SWAP3 SWAP6 SWAP5 PUSH1 0xA0 DUP5 ADD CALLDATALOAD SWAP5 POP PUSH1 0xC0 SWAP1 SWAP4 ADD CALLDATALOAD SWAP3 SWAP2 POP POP JUMP JUMPDEST PUSH0 PUSH0 PUSH1 0x40 DUP4 DUP6 SUB SLT ISZERO PUSH2 0x218D JUMPI PUSH0 PUSH0 REVERT JUMPDEST DUP3 CALLDATALOAD PUSH2 0x2198 DUP2 PUSH2 0x1ECA JUMP JUMPDEST SWAP2 POP PUSH1 0x20 DUP4 ADD CALLDATALOAD PUSH2 0x21A8 DUP2 PUSH2 0x1ECA JUMP JUMPDEST DUP1 SWAP2 POP POP SWAP3 POP SWAP3 SWAP1 POP JUMP JUMPDEST PUSH0 PUSH0 PUSH1 0x40 DUP4 DUP6 SUB SLT ISZERO PUSH2 0x21C4 JUMPI PUSH0 PUSH0 REVERT JUMPDEST DUP3 CALLDATALOAD PUSH2 0x21CF DUP2 PUSH2 0x1ECA JUMP JUMPDEST SWAP2 POP PUSH1 0x20 DUP4 ADD CALLDATALOAD PUSH4 0xFFFFFFFF DUP2 AND DUP2 EQ PUSH2 0x21A8 JUMPI PUSH0 PUSH0 REVERT JUMPDEST PUSH1 0x1 DUP2 DUP2 SHR SWAP1 DUP3 AND DUP1 PUSH2 0x21FB JUMPI PUSH1 0x7F DUP3 AND SWAP2 POP JUMPDEST PUSH1 0x20 DUP3 LT DUP2 SUB PUSH2 0x2219 JUMPI PUSH4 0x4E487B71 PUSH1 0xE0 SHL PUSH0 MSTORE PUSH1 0x22 PUSH1 0x4 MSTORE PUSH1 0x24 PUSH0 REVERT JUMPDEST POP SWAP2 SWAP1 POP JUMP JUMPDEST PUSH1 0x1 PUSH1 0x1 PUSH1 0xA0 SHL SUB DUP8 DUP2 AND DUP3 MSTORE DUP7 AND PUSH1 0x20 DUP3 ADD MSTORE PUSH1 0x40 DUP2 ADD DUP6 SWAP1 MSTORE PUSH1 0x60 DUP2 ADD DUP5 SWAP1 MSTORE PUSH1 0xA0 PUSH1 0x80 DUP3 ADD DUP2 SWAP1 MSTORE DUP2 ADD DUP3 SWAP1 MSTORE DUP2 DUP4 PUSH1 0xC0 DUP4 ADD CALLDATACOPY PUSH0 DUP2 DUP4 ADD PUSH1 0xC0 SWAP1 DUP2 ADD SWAP2 SWAP1 SWAP2 MSTORE PUSH1 0x1F SWAP1 SWAP3 ADD PUSH1 0x1F NOT AND ADD ADD SWAP6 SWAP5 POP POP POP POP POP JUMP JUMPDEST PUSH0 PUSH1 0x20 DUP3 DUP5 SUB SLT ISZERO PUSH2 0x2287 JUMPI PUSH0 PUSH0 REVERT JUMPDEST POP MLOAD SWAP2 SWAP1 POP JUMP JUMPDEST PUSH4 0x4E487B71 PUSH1 0xE0 SHL PUSH0 MSTORE PUSH1 0x11 PUSH1 0x4 MSTORE PUSH1 0x24 PUSH0 REVERT JUMPDEST DUP1 DUP3 ADD DUP1 DUP3 GT ISZERO PUSH2 0x59C JUMPI PUSH2 0x59C PUSH2 0x228E JUMP JUMPDEST DUP2 DUP2 SUB DUP2 DUP2 GT ISZERO PUSH2 0x59C JUMPI PUSH2 0x59C PUSH2 0x228E JUMP JUMPDEST PUSH1 0x1 PUSH1 0x1 PUSH1 0xD0 SHL SUB DUP2 DUP2 AND DUP4 DUP3 AND ADD SWAP1 DUP2 GT ISZERO PUSH2 0x59C JUMPI PUSH2 0x59C PUSH2 0x228E JUMP JUMPDEST PUSH1 0x1 PUSH1 0x1 PUSH1 0xD0 SHL SUB DUP3 DUP2 AND DUP3 DUP3 AND SUB SWAP1 DUP2 GT ISZERO PUSH2 0x59C JUMPI PUSH2 0x59C PUSH2 0x228E JUMP JUMPDEST PUSH4 0x4E487B71 PUSH1 0xE0 SHL PUSH0 MSTORE PUSH1 0x12 PUSH1 0x4 MSTORE PUSH1 0x24 PUSH0 REVERT JUMPDEST PUSH4 0x4E487B71 PUSH1 0xE0 SHL PUSH0 MSTORE PUSH1 0x21 PUSH1 0x4 MSTORE PUSH1 0x24 PUSH0 REVERT JUMPDEST PUSH4 0x4E487B71 PUSH1 0xE0 SHL PUSH0 MSTORE PUSH1 0x32 PUSH1 0x4 MSTORE PUSH1 0x24 PUSH0 REVERT JUMPDEST PUSH0 DUP3 PUSH2 0x235C JUMPI PUSH4 0x4E487B71 PUSH1 0xE0 SHL PUSH0 MSTORE PUSH1 0x12 PUSH1 0x4 MSTORE PUSH1 0x24 PUSH0 REVERT JUMPDEST POP DIV SWAP1 JUMP INVALID LOG2 PUSH5 0x6970667358 0x22 SLT KECCAK256 0x2B 0x28 EQ RETURNDATACOPY PUSH32 0xBF25E8D942B3C2D683C8DAE70A4ACF339C48E8A4AC83B53269D53A64736F6C63 NUMBER STOP ADDMOD SHR STOP CALLER 0xDE 0xC2 0xBA 0xCD 0xD2 CREATE JUMPDEST MSIZE 0xDE CALLVALUE 0xDA SWAP12 MSTORE RETURNDATASIZE SELFDESTRUCT DUP12 0xE4 0x2E MCOPY CODESIZE 0xE8 XOR 0xC8 0x2F 0xDB SIGNEXTEND 0xAE PUSH24 0x4387A7240000000000000000000000000000000000000000 "
		},
		"gasEstimates": {
			"creation": {
				"codeDepositCost": "1822200",
				"executionCost": "infinite",
				"totalCost": "infinite"
			},
			"external": {
				"CLOCK_MODE()": "infinite",
				"DOMAIN_SEPARATOR()": "infinite",
				"allowance(address,address)": "infinite",
				"approve(address,uint256)": "24774",
				"balanceOf(address)": "2577",
				"checkpoints(address,uint32)": "infinite",
				"clock()": "infinite",
				"decimals()": "222",
				"delegate(address)": "infinite",
				"delegateBySig(address,uint256,uint256,uint8,bytes32,bytes32)": "infinite",
				"delegates(address)": "2648",
				"eip712Domain()": "infinite",
				"flashFee(address,uint256)": "511",
				"flashLoan(address,address,uint256,bytes)": "infinite",
				"getPastTotalSupply(uint256)": "infinite",
				"getPastVotes(address,uint256)": "infinite",
				"getVotes(address)": "infinite",
				"maxFlashLoan(address)": "infinite",
				"mint(address,uint256)": "infinite",
				"name()": "infinite",
				"nonces(address)": "infinite",
				"numCheckpoints(address)": "infinite",
				"owner()": "2408",
				"pause()": "infinite",
				"paused()": "2348",
				"permit(address,address,uint256,uint256,uint8,bytes32,bytes32)": "infinite",
				"renounceOwnership()": "infinite",
				"symbol()": "infinite",
				"totalSupply()": "2371",
				"transfer(address,uint256)": "infinite",
				"transferFrom(address,address,uint256)": "infinite",
				"transferOwnership(address)": "infinite",
				"unpause()": "infinite"
			},
			"internal": {
				"_update(address,address,uint256)": "infinite"
			}
		},
		"methodIdentifiers": {
			"CLOCK_MODE()": "4bf5d7e9",
			"DOMAIN_SEPARATOR()": "3644e515",
			"allowance(address,address)": "dd62ed3e",
			"approve(address,uint256)": "095ea7b3",
			"balanceOf(address)": "70a08231",
			"checkpoints(address,uint32)": "f1127ed8",
			"clock()": "91ddadf4",
			"decimals()": "313ce567",
			"delegate(address)": "5c19a95c",
			"delegateBySig(address,uint256,uint256,uint8,bytes32,bytes32)": "c3cda520",
			"delegates(address)": "587cde1e",
			"eip712Domain()": "84b0196e",
			"flashFee(address,uint256)": "d9d98ce4",
			"flashLoan(address,address,uint256,bytes)": "5cffe9de",
			"getPastTotalSupply(uint256)": "8e539e8c",
			"getPastVotes(address,uint256)": "3a46b1a8",
			"getVotes(address)": "9ab24eb0",
			"maxFlashLoan(address)": "613255ab",
			"mint(address,uint256)": "40c10f19",
			"name()": "06fdde03",
			"nonces(address)": "7ecebe00",
			"numCheckpoints(address)": "6fcfff45",
			"owner()": "8da5cb5b",
			"pause()": "8456cb59",
			"paused()": "5c975abb",
			"permit(address,address,uint256,uint256,uint8,bytes32,bytes32)": "d505accf",
			"renounceOwnership()": "715018a6",
			"symbol()": "95d89b41",
			"totalSupply()": "18160ddd",
			"transfer(address,uint256)": "a9059cbb",
			"transferFrom(address,address,uint256)": "23b872dd",
			"transferOwnership(address)": "f2fde38b",
			"unpause()": "3f4ba83a"
		}
	},
	"abi": [
		{
			"inputs": [
				{
					"internalType": "address",
					"name": "initialOwner",
					"type": "address"
				}
			],
			"stateMutability": "nonpayable",
			"type": "constructor"
		},
		{
			"inputs": [],
			"name": "CheckpointUnorderedInsertion",
			"type": "error"
		},
		{
			"inputs": [],
			"name": "ECDSAInvalidSignature",
			"type": "error"
		},
		{
			"inputs": [
				{
					"internalType": "uint256",
					"name": "length",
					"type": "uint256"
				}
			],
			"name": "ECDSAInvalidSignatureLength",
			"type": "error"
		},
		{
			"inputs": [
				{
					"internalType": "bytes32",
					"name": "s",
					"type": "bytes32"
				}
			],
			"name": "ECDSAInvalidSignatureS",
			"type": "error"
		},
		{
			"inputs": [
				{
					"internalType": "uint256",
					"name": "increasedSupply",
					"type": "uint256"
				},
				{
					"internalType": "uint256",
					"name": "cap",
					"type": "uint256"
				}
			],
			"name": "ERC20ExceededSafeSupply",
			"type": "error"
		},
		{
			"inputs": [
				{
					"internalType": "address",
					"name": "spender",
					"type": "address"
				},
				{
					"internalType": "uint256",
					"name": "allowance",
					"type": "uint256"
				},
				{
					"internalType": "uint256",
					"name": "needed",
					"type": "uint256"
				}
			],
			"name": "ERC20InsufficientAllowance",
			"type": "error"
		},
		{
			"inputs": [
				{
					"internalType": "address",
					"name": "sender",
					"type": "address"
				},
				{
					"internalType": "uint256",
					"name": "balance",
					"type": "uint256"
				},
				{
					"internalType": "uint256",
					"name": "needed",
					"type": "uint256"
				}
			],
			"name": "ERC20InsufficientBalance",
			"type": "error"
		},
		{
			"inputs": [
				{
					"internalType": "address",
					"name": "approver",
					"type": "address"
				}
			],
			"name": "ERC20InvalidApprover",
			"type": "error"
		},
		{
			"inputs": [
				{
					"internalType": "address",
					"name": "receiver",
					"type": "address"
				}
			],
			"name": "ERC20InvalidReceiver",
			"type": "error"
		},
		{
			"inputs": [
				{
					"internalType": "address",
					"name": "sender",
					"type": "address"
				}
			],
			"name": "ERC20InvalidSender",
			"type": "error"
		},
		{
			"inputs": [
				{
					"internalType": "address",
					"name": "spender",
					"type": "address"
				}
			],
			"name": "ERC20InvalidSpender",
			"type": "error"
		},
		{
			"inputs": [
				{
					"internalType": "uint256",
					"name": "deadline",
					"type": "uint256"
				}
			],
			"name": "ERC2612ExpiredSignature",
			"type": "error"
		},
		{
			"inputs": [
				{
					"internalType": "address",
					"name": "signer",
					"type": "address"
				},
				{
					"internalType": "address",
					"name": "owner",
					"type": "address"
				}
			],
			"name": "ERC2612InvalidSigner",
			"type": "error"
		},
		{
			"inputs": [
				{
					"internalType": "uint256",
					"name": "maxLoan",
					"type": "uint256"
				}
			],
			"name": "ERC3156ExceededMaxLoan",
			"type": "error"
		},
		{
			"inputs": [
				{
					"internalType": "address",
					"name": "receiver",
					"type": "address"
				}
			],
			"name": "ERC3156InvalidReceiver",
			"type": "error"
		},
		{
			"inputs": [
				{
					"internalType": "address",
					"name": "token",
					"type": "address"
				}
			],
			"name": "ERC3156UnsupportedToken",
			"type": "error"
		},
		{
			"inputs": [
				{
					"internalType": "uint256",
					"name": "timepoint",
					"type": "uint256"
				},
				{
					"internalType": "uint48",
					"name": "clock",
					"type": "uint48"
				}
			],
			"name": "ERC5805FutureLookup",
			"type": "error"
		},
		{
			"inputs": [],
			"name": "ERC6372InconsistentClock",
			"type": "error"
		},
		{
			"inputs": [],
			"name": "EnforcedPause",
			"type": "error"
		},
		{
			"inputs": [],
			"name": "ExpectedPause",
			"type": "error"
		},
		{
			"inputs": [
				{
					"internalType": "address",
					"name": "account",
					"type": "address"
				},
				{
					"internalType": "uint256",
					"name": "currentNonce",
					"type": "uint256"
				}
			],
			"name": "InvalidAccountNonce",
			"type": "error"
		},
		{
			"inputs": [],
			"name": "InvalidShortString",
			"type": "error"
		},
		{
			"inputs": [
				{
					"internalType": "address",
					"name": "owner",
					"type": "address"
				}
			],
			"name": "OwnableInvalidOwner",
			"type": "error"
		},
		{
			"inputs": [
				{
					"internalType": "address",
					"name": "account",
					"type": "address"
				}
			],
			"name": "OwnableUnauthorizedAccount",
			"type": "error"
		},
		{
			"inputs": [
				{
					"internalType": "uint8",
					"name": "bits",
					"type": "uint8"
				},
				{
					"internalType": "uint256",
					"name": "value",
					"type": "uint256"
				}
			],
			"name": "SafeCastOverflowedUintDowncast",
			"type": "error"
		},
		{
			"inputs": [
				{
					"internalType": "string",
					"name": "str",
					"type": "string"
				}
			],
			"name": "StringTooLong",
			"type": "error"
		},
		{
			"inputs": [
				{
					"internalType": "uint256",
					"name": "expiry",
					"type": "uint256"
				}
			],
			"name": "VotesExpiredSignature",
			"type": "error"
		},
		{
			"anonymous": false,
			"inputs": [
				{
					"indexed": true,
					"internalType": "address",
					"name": "owner",
					"type": "address"
				},
				{
					"indexed": true,
					"internalType": "address",
					"name": "spender",
					"type": "address"
				},
				{
					"indexed": false,
					"internalType": "uint256",
					"name": "value",
					"type": "uint256"
				}
			],
			"name": "Approval",
			"type": "event"
		},
		{
			"anonymous": false,
			"inputs": [
				{
					"indexed": true,
					"internalType": "address",
					"name": "delegator",
					"type": "address"
				},
				{
					"indexed": true,
					"internalType": "address",
					"name": "fromDelegate",
					"type": "address"
				},
				{
					"indexed": true,
					"internalType": "address",
					"name": "toDelegate",
					"type": "address"
				}
			],
			"name": "DelegateChanged",
			"type": "event"
		},
		{
			"anonymous": false,
			"inputs": [
				{
					"indexed": true,
					"internalType": "address",
					"name": "delegate",
					"type": "address"
				},
				{
					"indexed": false,
					"internalType": "uint256",
					"name": "previousVotes",
					"type": "uint256"
				},
				{
					"indexed": false,
					"internalType": "uint256",
					"name": "newVotes",
					"type": "uint256"
				}
			],
			"name": "DelegateVotesChanged",
			"type": "event"
		},
		{
			"anonymous": false,
			"inputs": [],
			"name": "EIP712DomainChanged",
			"type": "event"
		},
		{
			"anonymous": false,
			"inputs": [
				{
					"indexed": true,
					"internalType": "address",
					"name": "previousOwner",
					"type": "address"
				},
				{
					"indexed": true,
					"internalType": "address",
					"name": "newOwner",
					"type": "address"
				}
			],
			"name": "OwnershipTransferred",
			"type": "event"
		},
		{
			"anonymous": false,
			"inputs": [
				{
					"indexed": false,
					"internalType": "address",
					"name": "account",
					"type": "address"
				}
			],
			"name": "Paused",
			"type": "event"
		},
		{
			"anonymous": false,
			"inputs": [
				{
					"indexed": true,
					"internalType": "address",
					"name": "from",
					"type": "address"
				},
				{
					"indexed": true,
					"internalType": "address",
					"name": "to",
					"type": "address"
				},
				{
					"indexed": false,
					"internalType": "uint256",
					"name": "value",
					"type": "uint256"
				}
			],
			"name": "Transfer",
			"type": "event"
		},
		{
			"anonymous": false,
			"inputs": [
				{
					"indexed": false,
					"internalType": "address",
					"name": "account",
					"type": "address"
				}
			],
			"name": "Unpaused",
			"type": "event"
		},
		{
			"inputs": [],
			"name": "CLOCK_MODE",
			"outputs": [
				{
					"internalType": "string",
					"name": "",
					"type": "string"
				}
			],
			"stateMutability": "view",
			"type": "function"
		},
		{
			"inputs": [],
			"name": "DOMAIN_SEPARATOR",
			"outputs": [
				{
					"internalType": "bytes32",
					"name": "",
					"type": "bytes32"
				}
			],
			"stateMutability": "view",
			"type": "function"
		},
		{
			"inputs": [
				{
					"internalType": "address",
					"name": "owner",
					"type": "address"
				},
				{
					"internalType": "address",
					"name": "spender",
					"type": "address"
				}
			],
			"name": "allowance",
			"outputs": [
				{
					"internalType": "uint256",
					"name": "",
					"type": "uint256"
				}
			],
			"stateMutability": "view",
			"type": "function"
		},
		{
			"inputs": [
				{
					"internalType": "address",
					"name": "spender",
					"type": "address"
				},
				{
					"internalType": "uint256",
					"name": "value",
					"type": "uint256"
				}
			],
			"name": "approve",
			"outputs": [
				{
					"internalType": "bool",
					"name": "",
					"type": "bool"
				}
			],
			"stateMutability": "nonpayable",
			"type": "function"
		},
		{
			"inputs": [
				{
					"internalType": "address",
					"name": "account",
					"type": "address"
				}
			],
			"name": "balanceOf",
			"outputs": [
				{
					"internalType": "uint256",
					"name": "",
					"type": "uint256"
				}
			],
			"stateMutability": "view",
			"type": "function"
		},
		{
			"inputs": [
				{
					"internalType": "address",
					"name": "account",
					"type": "address"
				},
				{
					"internalType": "uint32",
					"name": "pos",
					"type": "uint32"
				}
			],
			"name": "checkpoints",
			"outputs": [
				{
					"components": [
						{
							"internalType": "uint48",
							"name": "_key",
							"type": "uint48"
						},
						{
							"internalType": "uint208",
							"name": "_value",
							"type": "uint208"
						}
					],
					"internalType": "struct Checkpoints.Checkpoint208",
					"name": "",
					"type": "tuple"
				}
			],
			"stateMutability": "view",
			"type": "function"
		},
		{
			"inputs": [],
			"name": "clock",
			"outputs": [
				{
					"internalType": "uint48",
					"name": "",
					"type": "uint48"
				}
			],
			"stateMutability": "view",
			"type": "function"
		},
		{
			"inputs": [],
			"name": "decimals",
			"outputs": [
				{
					"internalType": "uint8",
					"name": "",
					"type": "uint8"
				}
			],
			"stateMutability": "view",
			"type": "function"
		},
		{
			"inputs": [
				{
					"internalType": "address",
					"name": "delegatee",
					"type": "address"
				}
			],
			"name": "delegate",
			"outputs": [],
			"stateMutability": "nonpayable",
			"type": "function"
		},
		{
			"inputs": [
				{
					"internalType": "address",
					"name": "delegatee",
					"type": "address"
				},
				{
					"internalType": "uint256",
					"name": "nonce",
					"type": "uint256"
				},
				{
					"internalType": "uint256",
					"name": "expiry",
					"type": "uint256"
				},
				{
					"internalType": "uint8",
					"name": "v",
					"type": "uint8"
				},
				{
					"internalType": "bytes32",
					"name": "r",
					"type": "bytes32"
				},
				{
					"internalType": "bytes32",
					"name": "s",
					"type": "bytes32"
				}
			],
			"name": "delegateBySig",
			"outputs": [],
			"stateMutability": "nonpayable",
			"type": "function"
		},
		{
			"inputs": [
				{
					"internalType": "address",
					"name": "account",
					"type": "address"
				}
			],
			"name": "delegates",
			"outputs": [
				{
					"internalType": "address",
					"name": "",
					"type": "address"
				}
			],
			"stateMutability": "view",
			"type": "function"
		},
		{
			"inputs": [],
			"name": "eip712Domain",
			"outputs": [
				{
					"internalType": "bytes1",
					"name": "fields",
					"type": "bytes1"
				},
				{
					"internalType": "string",
					"name": "name",
					"type": "string"
				},
				{
					"internalType": "string",
					"name": "version",
					"type": "string"
				},
				{
					"internalType": "uint256",
					"name": "chainId",
					"type": "uint256"
				},
				{
					"internalType": "address",
					"name": "verifyingContract",
					"type": "address"
				},
				{
					"internalType": "bytes32",
					"name": "salt",
					"type": "bytes32"
				},
				{
					"internalType": "uint256[]",
					"name": "extensions",
					"type": "uint256[]"
				}
			],
			"stateMutability": "view",
			"type": "function"
		},
		{
			"inputs": [
				{
					"internalType": "address",
					"name": "token",
					"type": "address"
				},
				{
					"internalType": "uint256",
					"name": "value",
					"type": "uint256"
				}
			],
			"name": "flashFee",
			"outputs": [
				{
					"internalType": "uint256",
					"name": "",
					"type": "uint256"
				}
			],
			"stateMutability": "view",
			"type": "function"
		},
		{
			"inputs": [
				{
					"internalType": "contract IERC3156FlashBorrower",
					"name": "receiver",
					"type": "address"
				},
				{
					"internalType": "address",
					"name": "token",
					"type": "address"
				},
				{
					"internalType": "uint256",
					"name": "value",
					"type": "uint256"
				},
				{
					"internalType": "bytes",
					"name": "data",
					"type": "bytes"
				}
			],
			"name": "flashLoan",
			"outputs": [
				{
					"internalType": "bool",
					"name": "",
					"type": "bool"
				}
			],
			"stateMutability": "nonpayable",
			"type": "function"
		},
		{
			"inputs": [
				{
					"internalType": "uint256",
					"name": "timepoint",
					"type": "uint256"
				}
			],
			"name": "getPastTotalSupply",
			"outputs": [
				{
					"internalType": "uint256",
					"name": "",
					"type": "uint256"
				}
			],
			"stateMutability": "view",
			"type": "function"
		},
		{
			"inputs": [
				{
					"internalType": "address",
					"name": "account",
					"type": "address"
				},
				{
					"internalType": "uint256",
					"name": "timepoint",
					"type": "uint256"
				}
			],
			"name": "getPastVotes",
			"outputs": [
				{
					"internalType": "uint256",
					"name": "",
					"type": "uint256"
				}
			],
			"stateMutability": "view",
			"type": "function"
		},
		{
			"inputs": [
				{
					"internalType": "address",
					"name": "account",
					"type": "address"
				}
			],
			"name": "getVotes",
			"outputs": [
				{
					"internalType": "uint256",
					"name": "",
					"type": "uint256"
				}
			],
			"stateMutability": "view",
			"type": "function"
		},
		{
			"inputs": [
				{
					"internalType": "address",
					"name": "token",
					"type": "address"
				}
			],
			"name": "maxFlashLoan",
			"outputs": [
				{
					"internalType": "uint256",
					"name": "",
					"type": "uint256"
				}
			],
			"stateMutability": "view",
			"type": "function"
		},
		{
			"inputs": [
				{
					"internalType": "address",
					"name": "to",
					"type": "address"
				},
				{
					"internalType": "uint256",
					"name": "amount",
					"type": "uint256"
				}
			],
			"name": "mint",
			"outputs": [],
			"stateMutability": "nonpayable",
			"type": "function"
		},
		{
			"inputs": [],
			"name": "name",
			"outputs": [
				{
					"internalType": "string",
					"name": "",
					"type": "string"
				}
			],
			"stateMutability": "view",
			"type": "function"
		},
		{
			"inputs": [
				{
					"internalType": "address",
					"name": "owner",
					"type": "address"
				}
			],
			"name": "nonces",
			"outputs": [
				{
					"internalType": "uint256",
					"name": "",
					"type": "uint256"
				}
			],
			"stateMutability": "view",
			"type": "function"
		},
		{
			"inputs": [
				{
					"internalType": "address",
					"name": "account",
					"type": "address"
				}
			],
			"name": "numCheckpoints",
			"outputs": [
				{
					"internalType": "uint32",
					"name": "",
					"type": "uint32"
				}
			],
			"stateMutability": "view",
			"type": "function"
		},
		{
			"inputs": [],
			"name": "owner",
			"outputs": [
				{
					"internalType": "address",
					"name": "",
					"type": "address"
				}
			],
			"stateMutability": "view",
			"type": "function"
		},
		{
			"inputs": [],
			"name": "pause",
			"outputs": [],
			"stateMutability": "nonpayable",
			"type": "function"
		},
		{
			"inputs": [],
			"name": "paused",
			"outputs": [
				{
					"internalType": "bool",
					"name": "",
					"type": "bool"
				}
			],
			"stateMutability": "view",
			"type": "function"
		},
		{
			"inputs": [
				{
					"internalType": "address",
					"name": "owner",
					"type": "address"
				},
				{
					"internalType": "address",
					"name": "spender",
					"type": "address"
				},
				{
					"internalType": "uint256",
					"name": "value",
					"type": "uint256"
				},
				{
					"internalType": "uint256",
					"name": "deadline",
					"type": "uint256"
				},
				{
					"internalType": "uint8",
					"name": "v",
					"type": "uint8"
				},
				{
					"internalType": "bytes32",
					"name": "r",
					"type": "bytes32"
				},
				{
					"internalType": "bytes32",
					"name": "s",
					"type": "bytes32"
				}
			],
			"name": "permit",
			"outputs": [],
			"stateMutability": "nonpayable",
			"type": "function"
		},
		{
			"inputs": [],
			"name": "renounceOwnership",
			"outputs": [],
			"stateMutability": "nonpayable",
			"type": "function"
		},
		{
			"inputs": [],
			"name": "symbol",
			"outputs": [
				{
					"internalType": "string",
					"name": "",
					"type": "string"
				}
			],
			"stateMutability": "view",
			"type": "function"
		},
		{
			"inputs": [],
			"name": "totalSupply",
			"outputs": [
				{
					"internalType": "uint256",
					"name": "",
					"type": "uint256"
				}
			],
			"stateMutability": "view",
			"type": "function"
		},
		{
			"inputs": [
				{
					"internalType": "address",
					"name": "to",
					"type": "address"
				},
				{
					"internalType": "uint256",
					"name": "value",
					"type": "uint256"
				}
			],
			"name": "transfer",
			"outputs": [
				{
					"internalType": "bool",
					"name": "",
					"type": "bool"
				}
			],
			"stateMutability": "nonpayable",
			"type": "function"
		},
		{
			"inputs": [
				{
					"internalType": "address",
					"name": "from",
					"type": "address"
				},
				{
					"internalType": "address",
					"name": "to",
					"type": "address"
				},
				{
					"internalType": "uint256",
					"name": "value",
					"type": "uint256"
				}
			],
			"name": "transferFrom",
			"outputs": [
				{
					"internalType": "bool",
					"name": "",
					"type": "bool"
				}
			],
			"stateMutability": "nonpayable",
			"type": "function"
		},
		{
			"inputs": [
				{
					"internalType": "address",
					"name": "newOwner",
					"type": "address"
				}
			],
			"name": "transferOwnership",
			"outputs": [],
			"stateMutability": "nonpayable",
			"type": "function"
		},
		{
			"inputs": [],
			"name": "unpause",
			"outputs": [],
			"stateMutability": "nonpayable",
			"type": "function"
		}
	]
}